:020000040800F2
:10000000100300204D7D0008717D0008757D0008FB
:10001000797D00087D7D0008817D000800000000DA
:10002000000000000000000000000000C57700088C
:10003000857D0008000000006D770008FD7C000849
:10004000897D00088D7D0008917D0008957D000860
:10005000997D00089D7D0008017D0008A17D0008B4
:10006000A57D0008A97D0008AD7D0008B17D0008D0
:10007000B57D0008B97D0008BD7D0008C17D000880
:10008000C57D0008C97D0008CD7D0008D17D000830
:10009000D57D0008D97D0008DD7D0008E17D0008E0
:1000A000E57D0008137D0008E97D0008ED7D00086E
:1000B000F17D0008F57D0008F97D0008FD7D000850
:1000C000017E0008057E0008097E00080D7E0008FC
:1000D000117E0008157E0008197E00081D7E0008AC
:1000E000217E0008257E0008297E00082D7E00085C
:1000F000317E0008357E0008397E00083D7E00080C
:10010000417E0008457E0008497E00084D7E0008BB
:10011000517E0008557E0008597E00085D7E00086B
:10012000617E0008657E0008697E00086D7E00081B
:10013000717E0008757E0008797E00087D7E0008CB
:10014000817E0008857E0008897E00088D7E00087B
:10015000917E0008957E0008997E00089D7E00082B
:10016000A17E0008A57E0008A97E0008AD7E0008DB
:10017000B17E0008B57E0008B97E000800000000CE
:10018000BD7E0008C17E00084FF4E0721044026892
:10019000914203D343681A44914202D380680028F5
:1001A000F5D17047DFF85C07016891B94FF48031F1
:1001B00081604FF4805141604FF0FF31C1600161B7
:1001C0000421DFF844274161C2F8BC11DFF83C1775
:1001D00001600120704701F1080313F0070305D007
:1001E00001F10803C3F1080303F007031944D21A0D
:1001F0008161C26042F001034B60114428234B60CF
:10020000DFF800170969C16170472DE9F84F06460C
:1002100001F1080010F0070008BF884607D001F17F
:100220000800C0F1080000F0070001EB000802F12F
:10023000080010F0070006D002F10800C0F1080025
:1002400000F0070002441546A5EB0800A0EB0309E7
:1002500008EB030B43F00300C8F80400AB4528BFCC
:1002600001F00CFA2879C00758BF01F007FAB9F17C
:10027000100F38BF01F002FAB069854209D1F06869
:100280004844F060C6F818B040F00100CBF8040014
:1002900070E1706985420BD1B0684844B060C6F81F
:1002A00014B040F00101CBF804104BF8000061E1FC
:1002B000686800F00301012940F0AF80C008C00069
:1002C0000190C00820283BD2D5F808A0EF68009024
:1002D000BD4208BF01F0D2F9554508BF01F0CEF983
:1002E00068680099C008C000B0EBC10F18BF01F0EA
:1002F000C5F9009806EBC00000F128018A4508D036
:1003000031698A45C0F08480DAF80C10A94240F0C7
:100310007F80574506D1009A30680121914088437B
:10032000306077E02830874205D0306987426FD34C
:10033000B868A8426CD1CAF80C70C7F808A069E088
:10034000EF68D5F818A0AF420CD0A8683169884290
:1003500023D3C168A94204BFB968A9421DD1C760AF
:10036000B8601CE005F11400076837B905F110000A
:100370000768A7B101E00846076807F114010A6899
:10038000002A02BF07F110010A68002AF3D131697F
:10039000884202D30021016001E001F06FF9BAF157
:1003A000000F37D0E86906EB80004FF498710844DD
:1003B00001688D4208D10760A7B9EA697068012118
:1003C00091408843706025E03069824508D3DAF8AF
:1003D0001000A84214BFCAF81470CAF8107001E0E7
:1003E00001F04CF9B7B13069874211D3C7F818A0B2
:1003F000296929B1814226BF39618F6101F03EF937
:10040000686938B13169884202D37861876101E057
:1004100001F034F9019805448144686840084000BF
:1004200068604FEAD90549F00100CBF804004BF8A9
:100430000990202D23D206EBC50000F12807BA460B
:10044000B9F1100F38BF01F019F9306820FA05F141
:10045000C90704D40121A9400843306006E0B86808
:10046000316988422CBF824601F008F9C7F808B00C
:10047000CAF80CB0CBF808A0CBF80C707AE05FEAB1
:10048000192108BF002023D0B1F5803F28BF1F20CD
:100490001ED2A1F58070000C00F008008140A1F58B
:1004A0008052120C02F004029140A1F580431B0C13
:1004B000C0F10E0003F00203801AC01A994000EB4D
:1004C000D130C11D29FA01F202F0010101EB400017
:1004D00006EB80014FF498721144CBF81C00002207
:1004E000CBF81420CBF81020726822FA00F3DB0757
:1004F00007D4012303FA00F010437060C1F800B084
:100500001DE009681F281DBF4008C0F1190009FA45
:1005100000F0484600E011464A68D208D2004A4539
:1005200014D0C20F01EB820202F1100340001A68DE
:10053000002AF0D1306983421AD3C3F800B0CBF857
:100540001810CBF80CB0CBF808B013E0326988680B
:10055000914228BF90420BD3C0F80CB0C1F808B04C
:10056000CBF80800CBF80C100020CBF8180001E005
:1005700001F084F808F10800BDE8E68F2DE9FA4D96
:100580000546DFF88003006882B008B9FFF70AFE6D
:10059000DFF870030299806841182F31401E21EA6C
:1005A00000000299814280F0A9814FF4D8716E1841
:1005B000B16839B132688018824280F09F818142EF
:1005C000C0F09C8101F062F800281EBF0446D0F8FC
:1005D000008014F1010F00F091813068716840448F
:1005E0008142306038BF01467160A86980BB2869CC
:1005F00008B1844200D22C610020F0613461C6F859
:10060000148005F12801BF48006868624FF0FF3090
:1006100028620020C960896001F108024A610A610C
:10062000801C10312028F5D3B748854203D1A8F1AA
:10063000280221462AE055F8040CC00805EBC0004A
:10064000A0F1080104EB0800401AA0F128021DE007
:100650004FF4E0702918084600E08068D0B10268C5
:1006600043681A449442F8D1027B120712D4AA6953
:1006700003689A420ED347683B449A420AD208EB79
:1006800007014160E868A96908EB00022846FFF706
:10069000A2FD1DE128698442084638BF2C6104EBA5
:1006A000080100E0806880B102688A42FAD1017BCB
:1006B00009070AD404604168414441602146029B15
:1006C000284604B0BDE8F04D9FE5AF69394628469D
:1006D000FFF75AFD4FF0000B016840680844019095
:1006E000273810F0070101990EBF0020C0F1080063
:1006F00000F0070008442F3807F11001884234BF8A
:1007000000970090009804F1080100F1180A11F018
:100710000701A8F1280005D004F10801C1F1080182
:1007200001F00701401A2144A961E86040F001028C
:100730004A6008442822426072480069E8610098D3
:10074000083010F0070018BF00F098FF00991B2038
:1007500048604FF4E0712944B1E80C50009808302B
:10076000A0E80C503461C6F81480C6F81CB000989C
:100770000830B061019801E00AF1040A0721CAF8C3
:1007800004100BF1010B0AF108018142F4D3BBF113
:10079000020FB8BF00F072FF0098B84200F09880D6
:1007A000C01B3918C4084A68520852004A6040F019
:1007B000010179603850202C20D205EBC40101F1F1
:1007C0002806B046102838BF00F058FF286820FAE5
:1007D00004F1C90704D40121A1400843286006E0C0
:1007E000B068296988422CBF804600F047FFB76097
:1007F000C8F80C70C7F80880FE6069E0010A23D0D1
:10080000B1F5803F28BF1F211ED2A1F58072120CC6
:1008100002F008029140A1F580531B0C03F0040381
:100820009940A1F58044240CC2F10E0204F00204A8
:10083000D21A121BA14002EBD131CA1D20FA02F3D9
:1008400003F0010202EB410105EB81024FF49873C2
:100850001A44F96100237B613B616B6823FA01F460
:10086000E40705D4012088401843686017601CE045
:1008700012681F291DBF4908C1F1190100FA01F1D1
:10088000014600E01A465368DB08DB00834210D0C3
:10089000CB0F02EB830303F1100449002368002B04
:1008A000F0D12869844211D32760BA61FF60BF602C
:1008B0000EE0296990688A4228BF884206D3C76043
:1008C0009760B860FA600020B86101E000F0D6FEE1
:1008D000E8680299814211D2401AE860A969029A37
:1008E0000A44AA6140F001005060029840F0030001
:1008F000486004B001F10800BDE8F08D002004B0AC
:10090000BDE8F08D481F0020B01A00206859883CCF
:100910002DE9F84F0446002689465FEA1920C9F1FF
:10092000000B08BF002123D0B0F5803F28BF1F2156
:100930001ED2A0F58071090C01F008018840A0F5D5
:100940008052120C02F004029040A0F580431B0C70
:10095000C1F10E0103F00203891AC91A984001EB94
:10096000D030C11D29FA01F202F0010101EB400172
:1009700004EB8100D0F8300118B31F290FBF4A469D
:100980004A08C2F1190209FA02F2002300E05200FB
:100990004568ED08ED00A5EB09055D4503D25FEA6A
:1009A000050B06460BD04569D70F00EB8700002DDD
:1009B00000691CBF85422B460028E8D11846B8BB09
:1009C000C6BB01208840400041420843616808409E
:1009D00000F05D8141420840401E010B01F0100112
:1009E000C840420902F00802D040830803F0040323
:1009F000D840450805F002055118E8405918C0F3E1
:100A0000400729443944F840401804EB8000D0F8EE
:100A100030010DE008464168C908C900A1EB090191
:100A200059453CBF8B46064601690029F2D1406911
:100A30000028F0D1002E00F02A81A068A0EB090068
:100A4000834580F0248120698642C0F01E81706851
:100A5000C00809EB0B08C000404518BF00F00EFEAF
:100A600006EB0905AE4280F01081F768D6F818A0B1
:100A7000B7420CD0B0682169884223D3C168B14223
:100A800004BFB968B1421DD1C760B8601CE006F16F
:100A90001400076837B906F110000768A7B101E034
:100AA0000846076807F114010A68002A02BF07F127
:100AB00010010A68002AF3D12169884202D300217B
:100AC000016001E000F0DAFDBAF1000F39D0F06901
:100AD00004EB80004FF49871084401688E4209D1FC
:100AE0000760380014D1F2696068012191408843A1
:100AF000606026E02069824508D3DAF81000B04231
:100B000014BFCAF81470CAF8107001E000F0B6FD06
:100B1000BFB12069874212D3C7F818A0306930B13D
:100B20002169884226BF3861876100F0A7FD70699E
:100B300038B12169884202D37861876101E000F011
:100B40009DFDBBF1100F09D248F00300706006EB69
:100B50000800416841F00101416095E049F003005F
:100B600070604BF0010068604FEADB0045F80BB0A5
:100B700020281DD204EBC00101F12807216821FAC9
:100B800000F2D207BB4605D4012202FA00F0084366
:100B9000206006E0B868216988422CBF834600F0D7
:100BA0006DFDBD60CBF80C50C5F808B0EF606BE090
:100BB0005FEA1B2023D0B0F5803F28BF1F201ED244
:100BC000A0F58071090C01F008018840A0F5805261
:100BD000120C02F004029040A0F580431B0CC1F1FE
:100BE0000E0103F00203891AC91A984001EBD030B4
:100BF000C11D2BFA01F202F0010101EB400004EBF0
:100C000080014FF498721144E86100226A612A6100
:100C1000626822FA00F3DB0706D4012303FA00F02E
:100C2000104360600D601CE009681F281DBF40086C
:100C3000C0F119000BFA00F0584600E011464A686E
:100C4000D208D2005A4510D0C20F01EB820202F145
:100C5000100340001A68002AF0D12069834211D3A2
:100C60001D60A961ED60AD600EE022698868914267
:100C700028BF904206D3C5608D60A860E96000205F
:100C8000A86101E000F0FAFC08E100F0F7FC02E1E5
:100C90002DE9F84F04468846606841420840401EEE
:100CA000010B01F01001C840420902F00802D040D7
:100CB000830803F00403D840450805F002055118E5
:100CC000E8405918C0F3400629447118F040401814
:100CD00004EB8000D0F830014168C908C90006461D
:100CE000A1EB080A09E008464168C908C900A1EB60
:100CF000080151453CBF8A46064601690029F2D1E8
:100D000040690028F0D120698642C0F0C280706836
:100D1000C00808EB0A09C000484518BF00F0AEFC47
:100D200006EB080B5E4580F0B480F768B569B74202
:100D30000CD0B0682169884223D3C168B14204BF96
:100D4000B968B1421DD1C760B8601CE006F114005B
:100D5000076837B906F110000768A7B101E0084637
:100D6000076807F114010A68002A02BF07F11001A1
:100D70000A68002AF3D12169884202D30021016068
:100D800001E000F07BFC002D35D0F06904EB800021
:100D90004FF49871084401688E4209D10760380009
:100DA00011D1F2696068012191408843606022E0BE
:100DB0002069854205D32869B04214BF6F612F6155
:100DC00001E000F05BFCB7B12069874211D3BD613F
:100DD000306930B12169884226BF3861876100F0EF
:100DE0004DFC706938B12169884202D3786187610E
:100DF00001E000F043FCBAF1100F09D249F0030002
:100E0000706006EB0900416841F0010141603FE07C
:100E100048F0030070604AF00100CBF804004BF882
:100E20000AA0D4F808804FEAD805202D28BF00F08A
:100E300025FCB8F1000F27D0D4F81490009504EBEE
:100E4000C50000F128052F46B8F1100F38BF00F09B
:100E500015FC2068009920FA01F2D10705D4009A08
:100E6000012191400843206006E0A868216988427A
:100E70002CBF074600F002FCC5F80890C7F80C909C
:100E8000C9F80870C9F80C50C4F808A0C4F814B028
:100E900004E000F0F3FB0020BDE8F28F06F108004B
:100EA000BDE8F28F2DE9F04F83B00546C046C0463D
:100EB000F52DDFF8C04780F002810B2D31BF1027E0
:100EC00005F10B00C708FF002068FE08F04010F095
:100ED000030F42D0C04300F00100861904EBC600A6
:100EE00000F12808F700D8F808506868C008C0006A
:100EF000B84218BF00F0C2FBD5F80890454508BFBE
:100F000000F0BCFB4D4508BF00F0B8FB6868C008A6
:100F1000C000B84218BF00F0B1FBC84505D1206839
:100F20000121B140884320600DE02069814508D34C
:100F3000D9F80C00A84204D1C8F80890C9F80C8070
:100F400001E000F09BFB47F003006860E8190835FA
:100F5000416841F001014160F9E0A168B94280F0C7
:100F6000C080002800F0A280012505FA06F14900A2
:100F70004A42B0401143084041420840401E010B24
:100F800001F01001C840420902F00802D040830875
:100F900003F00403D840460806F002065118F0405A
:100FA0005918C0F340087118414420FA08F000EBCA
:100FB000010804EBC80000F128094FEAC80AD9F873
:100FC00008607068C008C000504518BF00F056FBAC
:100FD000D6F808B04E4508BF00F050FB5E4508BF8C
:100FE00000F04CFB7068C008C000504518BF00F00E
:100FF00045FBD94505D1206805FA08F188432060F2
:101000000DE02069834508D3DBF80C00B04204D121
:10101000C9F808B0CBF80C9001E000F02FFB47F0C6
:1010200003007060AAEB0708F019019048F0010076
:1010300001994860019840F80880A7684FEAD70AEC
:10104000BAF1200F28BF00F019FB47B3CDF800A07C
:1010500004EBCA00D4F8149000F1280AD346102FEC
:1010600038BF00F00BFB2068009920FA01F2D1078D
:1010700005D4009905FA01F10843206007E0DAF889
:101080000800216988422CBF834600F0F7FACAF8AD
:101090000890CBF80C90C9F808B0C9F80CA0C4F8B7
:1010A000088006F108050198606150E06068C0B3EF
:1010B00039462046FFF7ECFD050012D047E015F158
:1010C000400F28BF4FF0FF370BD205F10B00C708C8
:1010D0006068FF0028B139462046FFF719FC05007B
:1010E00035D1A068B8421CD3C11B626910290AD34C
:1010F000D0196061A16041F001034360415047F0A5
:10110000030050600AE00021A160616140F003012A
:1011100051601044416841F00101416002F108054D
:1011200015E0E06887420DD2C01BA169E060CA19D2
:10113000A26140F00100506001F1080547F0030092
:10114000486004E039462046FFF718FA0546C046D5
:10115000C046284603B0BDE8F08F00B970472DE9BE
:10116000F047A0F10804C046C046DFF808552869DA
:101170008442C0F07982616801F00302012A00F024
:101180007382CA084FEAC208CA0704EB080937D4B9
:10119000226811F0030F00F0698251420C4484422E
:1011A0009044C0F0618269698C4200F0D980D60811
:1011B000202E70D2D4F80CA0A768544508BF00F0C8
:1011C0005DFABC4208BF00F059FA6068C008C00070
:1011D000B0EBC60F18BF00F051FA05EBC60000F1E6
:1011E00028018F4205D029698F4251D3F968A14265
:1011F0004ED1BA453DD128680121B14088432860CD
:101200004C4580F03182D9F80400C10740F12C82AE
:10121000810700F17D81A969894540F0B680E868C1
:10122000AC614044E86040F00101616069698C4252
:1012300002D100216961A960E969814280F01682CA
:10124000DFF83404006808B9FEF7ACFFA96900298B
:1012500000F00C82E868292824BF2846FEF794FF96
:10126000E869E968884280F001824FF0FF30E86168
:10127000FCE12830824506D02869824508D3DAF897
:101280000800A04204D1C7F80CA0CAF80870B7E75C
:1012900000F0F4F9B4E7E768A669A7420BD0A168AB
:1012A000814222D3C868A04204BFB868A0421CD1C2
:1012B000CF60B9601BE004F114010F6837B904F185
:1012C00010010F689FB101E011460F6807F1140289
:1012D0001368002B02BF07F110021368002BF3D133
:1012E000814202D30020086001E000F0C7F9002E1F
:1012F00086D0E06905EB80004FF4987108440168DE
:101300008C4209D10760380011D1E2696868012177
:1013100091408843686073E72869864205D3306945
:10132000A04214BF7761376101E000F0A7F9002FF8
:101330003FF466AF28698742AAD3BE61216929B10B
:10134000814226BF39618F6100F098F960690028F9
:101350003FF456AF296988429AD3786187614FE795
:1013600099F8040000F0030003287FF449AFC5F8A2
:101370000880D9F8040040084000C9F8040048F08B
:101380000100606044F8088070E16969894508D10E
:10139000A8686C614044A86040F001016160205081
:1013A00064E1C008C0004FEAD00ABAF1200F8044BF
:1013B00037D2D9F80C70D9F80860B94508BF00F0E9
:1013C0005DF9B14508BF00F059F9D9F80400C0082B
:1013D000C000B0EBCA0F18BF00F050F905EBCA000F
:1013E00000F128018E4207D029698E42C0F0838027
:1013F000F168494540F07F80B74206D12868012155
:1014000001FA0AF18843286077E02830874205D046
:10141000286987426FD3B86848456CD1F760BE60D1
:101420006BE0D9F80C70D9F818604F450DD0D9F899
:1014300008002969884223D3C168494504BFB968B7
:1014400049451DD1C760B8601CE009F11400076868
:1014500037B909F110000768A7B101E0084607682D
:1014600007F114010A68002A02BF07F110010A6897
:10147000002AF3D12969884202D30021016001E0EA
:1014800000F0FCF8002E38D0D9F81C0005EB8000E5
:101490004FF498710844016889450AD10760380003
:1014A00012D1D9F81C2068680121914088436860F6
:1014B00023E02869864205D33069484514BF776127
:1014C000376101E000F0DAF8BFB12869874212D332
:1014D000BE61D9F8101029B1814226BF39618F61F0
:1014E00000F0CCF8D9F8140038B12969884202D349
:1014F0007861876101E000F0C1F848F001006060A8
:1015000044F80880686984420BD1C5F80880ADE0D2
:1015100040084000C9F8040048F00100606044F849
:1015200008804FEAD807202F22D205EBC70000F130
:1015300028094E46B8F1100F38BF00F09FF8286810
:1015400020FA07F1C90704D40121B94008432860F3
:1015500007E0D9F80800296988422CBF064600F048
:101560008DF8C9F80840F460A660C4F80C907DE0DE
:101570005FEA182008BF002123D0B0F5803F28BFC4
:101580001F211ED2A0F58071090C01F008018840CE
:10159000A0F58052120C02F004029040A0F58043A6
:1015A0001B0CC1F10E0103F00203891AC91A9840FD
:1015B00001EBD030C11D28FA01F202F0010101EB6C
:1015C000400105EB81004FF49872104400226261E3
:1015D0002261E1616A6822FA01F3DB0706D4012384
:1015E00003FA01F11143696004601CE000681F29DF
:1015F0001DBF4908C1F1190108FA01F1414600E097
:1016000010464268D208D200424510D0CA0F00EB03
:10161000820202F1100349001A68002AF0D12969F8
:101620008B4211D31C60A061E460A4600EE02A69C3
:101630008168904228BF914206D3CC608460E0600C
:10164000A1600020A06101E000F018F8286A401EA7
:1016500028620BD1D5F8C80100E080680028FCD1D1
:101660004FF0FF30286201E000F008F8C046C046A5
:10167000BDE8F087B01A0020481F0020012000F0CC
:101680001BB80268531C0360117070470749086853
:1016900008B1002070470648C008C000086005492E
:1016A000C908C900091A0160704700BF641F002003
:1016B000170300201007002080B5C046C046024A2C
:1016C00011001820ABBEFBE7260002002DE9F04F09
:1016D00082460FF25060A5B015461E46D0E90023A1
:1016E000CDE91223002004910D900DF150086FF008
:1016F000004900E03D440020ADF8020012AB4FF07D
:10170000FF3229460DF1020001F0AFF80746012F24
:1017100004DA2878471EBF41FF43FF0FBDF80200DF
:1017200025280CBFA7F1010BBB46BBF1010F0EDB57
:101730002C4614F8011B0498D0470028049000F0B0
:10174000F3800D98401CBBF1010B0D90F1D1BDF859
:101750000200252807D100200790089009900A90E0
:101760000B900C9005E00028C4D10D98E2E240F007
:10177000010015F8011F2029F9D023290DD02B29AC
:1017800004D02D2906D030290AD00CE040F0020008
:1017900080B2EEE740F00400FAE740F00800F7E717
:1017A00040F01000F4E72A290ED13168316051F879
:1017B000042B3160002A0F9204D5514240F00400FE
:1017C0000F9180B26D1C11E000210F9109E00F997B
:1017D000494505D001EB810302EB430130390F91FC
:1017E0006D1C2A78A2F130010A29F0D329782E291C
:1017F00003D04FF0FF310E911DE015F8011F2A298B
:1018000007D1316831606D1C51F8042B31600E92A4
:1018100011E000210E9109E00E99494505D001EB38
:10182000810302EB430130390E916D1C2A78A2F13D
:1018300030010A29F0D3ADF840000FF2F0402978CA
:1018400001F024F808B115F8010B8DF842009DF85D
:101850004200682802BF29786829622005D06C28D8
:1018600004BF28786C2803D171208DF842006D1CCC
:1018700014A8069015F8017BB7F125002AD01C3872
:1018800000F0DB80001F022840F2D780133800F000
:10189000FE80093800F0D180801E00F06B81401E70
:1018A00000F04181401E022840F2C780001F00F076
:1018B0003A81401F00F09280401E00F0E880401EF8
:1018C00035D0C01E0BD0801E00F0E180C01E00F09D
:1018D000DE8072E125208DF85000012077E19DF82F
:1018E00042006C283068306014D050F8044B3060EF
:1018F00005940E9F002F04D5204600F0D3FF074625
:1019000006E03A460021204600F0E8FF00B1071B40
:1019100008975DE150F8042B306002A9504600F0B2
:1019200044FA002840F154814FF0FF3002E2316860
:101930003160002251F8040B31600021CDE9020131
:1019400014A80590DDE902019142069F08BF90426C
:101950004FF03C0C01D10E9AC2B100F00F033033AE
:10196000DBB23A2BA8BF2733ACF101020009BB540C
:10197000944640EA017009090022914208BF904252
:1019800004D0059A07EB0C039A42E6D307EB0C0050
:101990000590CCF13C010E980891814209DA401A79
:1019A0000A904FF6EF71BDF840000840ADF84000D6
:1019B0000EE1002840F10C819DF8400000F0140079
:1019C000102840F005810F98079A801A0A9A801A09
:1019D000401A0128C0F2FC800A90F9E09DF842000C
:1019E00062281AD0682806D06A280CD06C281CD02F
:1019F000712808D019E03068306050F8041B30605E
:101A00000D980880E4E03068306050F8042B3060B6
:101A10000D98C117C2E90001DAE03068306050F873
:101A2000041B30600D980870D2E03068306050F8C8
:101A3000041B30600D980860CAE03068C01D6FF06C
:101A4000070101EA00023260D2E900010832326087
:101A5000CDE90201002902D507982D210AE0BDF841
:101A60004000810702D507982B2103E0C00705D568
:101A70000798202108F80010401C079014A8079927
:101A800008440590394602A800F09AFBA0E09DF8B2
:101A900042006C280FD0712818BF6A280BD130681B
:101AA000C01D6FF0070101EA00023260D2E90001B7
:101AB0000832326005E03168316051F8040B316062
:101AC0000021CDE902019DF84200682803D1DDE93B
:101AD000020180B20BE0622803D1DDE90201C0B24D
:101AE00005E0742818BF7A2804D1DDE9020100213D
:101AF000CDE902019DF84000000732D5DDE902235F
:101B00000020834208BF82422BD047F02000782873
:101B100027D10798302108F80010401C411C07917C
:101B200008F800701DE09DF84200314600F005F90C
:101B3000CDE90201DDE9022300218B4202DA079898
:101B40002D210AE0BDF84000810702D507982B211E
:101B500003E0C00705D50798202108F80010401CB5
:101B6000079014A8079908440590394602A800F088
:101B7000A2FA2DE09DF842006C2809D001200790C0
:101B80003068306050F8041B30608DF850101FE052
:101B90003068306001AA50F8041B3060ADF80410C2
:101BA0000020ADF8060002A94FF0FF300E9050461D
:101BB00000F0FBF800280BD5B6E625208DF8500084
:101BC00001200790380003D088F8017002200790A8
:101BD0000F980799401A0A99401A0899401A0B99C8
:101BE000401A0999401A0C99471A9DF8400040077D
:101BF00010D42020012F8DF800000BDB3C46012380
:101C00006A4602A9504600F00BFE00287FF48CAE15
:101C1000641EF4D1DDF81CB0BBF1000F14AC0DD084
:101C200014F8011B0498D047002804903FF47CAEC0
:101C30000D98401CBBF1010B0D90F1D130208DF8B7
:101C400000000A9C012C0ADB01236A4602A95046C7
:101C500000F0E6FD00287FF467AE641EF4D1DDF8E5
:101C600020B0059CBBF1000F0DD014F8011B0498A7
:101C7000D047002804903FF457AE0D98401CBBF1AC
:101C8000010B0D90F1D130208DF800000B9C012C40
:101C90000ADB01236A4602A9504600F0C1FD002874
:101CA0007FF442AE641EF4D105980899DDF824B0A3
:101CB0004418BBF1000F0DD014F8011B0498D04755
:101CC000002804903FF430AE0D98401CBBF1010B8E
:101CD0000D90F1D130208DF800000C9C012C0ADB16
:101CE00001236A4602A9504600F09AFD00287FF4BD
:101CF0001BAE641EF4D19DF8400040077FF5FBAC9D
:101D00002020012F8DF80000FFF6F5AC01236A4674
:101D100002A9504600F084FD00287FF405AE7F1E26
:101D2000F4D1E8E40000000000000000686A6C7470
:101D30007A4C000025B0BDE8F08F622827D06828D3
:101D40001ED06A2808D06C2828D0712804D07428A6
:101D500024D07A280DD021E00868C01D6FF007025A
:101D600010400860D0E9002308300860194610468A
:101D700070470A680A6052F8040B0A600021704735
:101D80000A680A6052F8040B0A6000B20BE00A68A5
:101D90000A6052F8040B0A6040B204E00A680A6064
:101DA00052F8040B0A60C11770472DE9F44F0D4635
:101DB00094B0D5F830A0BAF1000F804648BF6FF05C
:101DC000004A00F0B7FD696B401801900FF68020C3
:101DD000D0E90023CDE9022395F83800400702D46A
:101DE0000198412805D240200DF1100901900026EC
:101DF00009E0FFF757F85FEA0009F8D14FF0FF302C
:101E000056E1AAEB040ABAF1010FC0F2CE80149891
:101E1000018802AA0DF1010000F091FD002804469E
:101E200000F1DE801498008810B9641E00F1D8809B
:101E3000A245C0F2BA80686901992218914280F0E7
:101E4000A2806E634042296A401AA969401A696AF1
:101E5000401AE969401AA96A461A95F838004007FD
:101E600010D42020012E8DF800000BDB3746012313
:101E70006A462946404600F0D3FC002840F0B08076
:101E80007F1EF4D1D5F814B0BBF1000F4F460DD032
:101E900017F8011BA868C0470028A86000F0A080C0
:101EA000E86A401CBBF1010BE862F1D130208DF8EB
:101EB00000002F6A012F0ADB01236A4629464046AB
:101EC00000F0AEFC002840F08B807F1EF4D1D5F8E6
:101ED00018B0EF68BBF1000F0CD017F8011BA86811
:101EE000C0470028A8607BD0E86A401CBBF1010B0A
:101EF000E862F2D130208DF800006F6A012F09DB13
:101F000001236A462946404600F08AFC002867D132
:101F10007F1EF5D1E868A969D5F81CB04718BBF158
:101F2000000F0CD017F8011BA868C0470028A86054
:101F300056D0E86A401CBBF1010BE862F2D13020B8
:101F40008DF80000AF6A012F09DB01236A4629469C
:101F5000404600F065FC002842D17F1EF5D195F87F
:101F6000380040070DD52020012E8DF8000008DB39
:101F700001236A462946404600F052FC80BB761E8B
:101F8000F6D100266E61224668690DF101014844D0
:101F900000F0E2FC6869201868611498801C1490B5
:101FA000801E008800287FF42CAF686B6969401A96
:101FB000296A401AA969401A696A401AE969401AEF
:101FC000A96AA0EB010A95F83800400710D4BAF1CD
:101FD000010F0DDB5446A8682021C047A86010B946
:101FE0004FF0FF365DE0E86A401C641EE862F2D103
:101FF0006B694A462946404600F012FC0028EFD1A2
:102000002C6A012C0ADBA8683021C0470028A86090
:10201000E6D0E86A401C641EE862F4D1AB69EA6865
:102020002946404600F0FCFB0028D9D16C6A012CFF
:102030000ADBA8683021C0470028A860D0D0E86A31
:10204000401C641EE862F4D1E868A969EB69421893
:102050002946404600F0E4FB0028C1D1AC6A012CBF
:102060000ADBA8683021C0470028A860B8D0E86A19
:10207000401C641EE862F4D195F8380040070ED584
:10208000BAF1010F0BDBA8682021C0470028A86027
:10209000A6D0E86A401CBAF1010AE862F3D16E6189
:1020A0006E6304A881451CBF4846FFF756F83046CA
:1020B00015B0BDE8F08F2DE9F343054608462F69BA
:1020C0006F2808BF082405D041F02001782914BFEB
:1020D0000A2410243C26D5E90023642818BF692867
:1020E0009046994606D100218B4203DAD8F10008C8
:1020F00069EB49090020814508BF80450CD1286B58
:1021000050B9082C38D195F83800000734D5302064
:102110003B2687F83B002FE0701E009006464046A5
:1021200049462246E31700F053FC02F13000C0B2EA
:102130003A2803DB9DF8041051390818B855494670
:1021400040462246E31700F043FC804689460020C3
:10215000814508BF804503D0E868B9198842DBD3C0
:10216000082C09D195F83800000705D5B85D30284E
:1021700002D0761E3020B855B919E960C6F13C008E
:10218000296BA861884208DA081A28624FF6EF71B5
:10219000288F08402887BDE8F38300290ED595F8DD
:1021A000381001F01401102908D1696B6A69891A85
:1021B0002A6A891A0E1A012EA8BF2E62BDE8F3837F
:1021C0002DE9F24F04468EB0D4E90001CDE90201B9
:1021D00004AF9DF8380040F0200BBBF1610F0AD02E
:1021E000206B002848BF062004D408BFBBF1670F4E
:1021F00001D1012020636168C1F30A5040F2FF72EF
:1022000090421CD1080304BF2068002809D1032094
:10221000A0619DF8380061381A2835D30FF2446167
:1022200008E00320A0619DF8380061381A2828D3FF
:102230000FF22861E068032200F08EFBC3E1012861
:1022400015DA204600F03BFC012810DB00250020B9
:10225000BBF1610F1FD1E16830220A708A1CE26075
:102260009DF83820612A0CBF782258220FE062685E
:1022700040F2FE3161F31E52451A62604FF0FF30AA
:10228000E6E70FF2D451D5E70FF2D451D2E74A7006
:102290006169891C616110B9002600258AE1BBF1E2
:1022A000610F40F09880206BD4E900AB00284CBF50
:1022B0002126461CDDE902010022002300F022FC59
:1022C00036B23ABF8BF00040CDE902A0CDE902ABB7
:1022D00006F101082D1FB8F1010F8DF810200DF146
:1022E000110736DBDDE902010022002300F022FCA9
:1022F0002FD21C2102A800F035FCDDE9020100F01C
:10230000BBFCA8F10708B8F1010F814609DB00F01A
:10231000DFFC02460B46DDE9020100F0F1FCCDE9ED
:102320000201F81D072105E009F00F0200F8012D58
:102330004FEA2919B9F1010F01DB491EF4D5491EF5
:102340005CBF002200F8012DF9D5C71DB8F1010FBF
:10235000C8DA0DF11100391AB142B8BF0E4636B2D3
:1023600030000DF111072FD4884206DA04A9014488
:1023700049780829A8BF0F2100DA002104AA0244E5
:1023800000E0761E12F80139401E8B42F9D00F2969
:1023900004D104A901444A78521C4A70002802D58D
:1023A00004AF761C2D1D36B2701E0DD439180A7874
:1023B0003032D2B23A2A03DB9DF838303A3B9A18D1
:1023C000401E01F80129F2D5206B002840F1F2806F
:1023D000701E2063EEE0DDE902010022002300F020
:1023E00091FB3CBF81F00041CDE902012DB247F2E3
:1023F000975068434D49DFF8389180FB01214D1318
:1024000005EBD5752DB2C5F1070ABAF1010F984653
:102410001CDBDDE902675FEACA7007D542464B461E
:102420003046394600F02CFD06460F4640464946E8
:1024300042464B464FEA6A0A00F022FDBAF1000F0D
:1024400080468946E7D1CDE9026724E0CAF1000A57
:102450000026384F14E05FEACA7007D542464B4663
:102460003046394600F00CFD06460F4640464946C8
:1024700042464B4600F004FD4FEA6A0A8046894610
:10248000BAF1000FE7D1DDE9020132463B4600F028
:10249000C9FDCDE90201BBF1660F216BDFF8989011
:1024A0000CBF05F10A0006204618142EA8BF1326FB
:1024B00030208DF810000DF11107012E40DBDDE911
:1024C000020100F0EFFB07F1080104221B4FA0FB03
:1024D0000773DB0803EB8307A0EB4700303001F8FC
:1024E000010C164FA3FB0770C00800EB8007A3EB9D
:1024F00047033033521E01F8023DE7D1083E012E5A
:1025000001F10807D9DBDDE9020100F0CBFB00F0A7
:10251000E9FB02460B46DDE9020100F0F1FB002277
:102520004B4600F0ADFCCDE90201C8E789B5F814CF
:10253000000024400000F03F84D79741CDCCCCCCA4
:102540000DF11100381A0DF1110702E0401E6D1E49
:102550007F1C39783029F9D0BBF1660F08BF691CA0
:1025600004D0BBF1650F0CBF01210021226B8E1836
:1025700036B2B042B8BF064636B231001AD48142F4
:1025800004DA785C3528A8BF392000DA30207A18C0
:10259000521E00E0761E12F80139491E8342F9D01E
:1025A000392802D1785C401C7854002902D57F1E5E
:1025B000761C6D1C2DB29DF83810009533B23A464A
:1025C000204600F003F80FB0BDE8F08F2DE9F0478A
:1025D00086B006468A4690461D4600F06CFE012DE8
:1025E000406A376B90F8009002DA01250FF27828E4
:1025F0004AF02000BDF93840662808BF641C12D09C
:10260000672878D114F1040F7BDBBC4279DA96F8A5
:102610003800641C000702D4BD42B8BF2F4624B264
:102620003F1B48BF002724B2F068B169012C23DAB0
:102630004A1C30234354012F03DA96F83800000770
:1026400003D5F06800F80290521CE742B8BF7C4204
:1026500024B260427062E719AF42B261B8BF3D4632
:10266000F068B3692DB2F5612A464146184400F07E
:1026700073F9781BB062BCE022469542084416DA32
:102680002A46414600F068F9B1696918601B012FBC
:10269000B161706203DA96F83800000705D5F0687A
:1026A00000F80190F069401CF061B762A1E041467A
:1026B00000F052F9B06920182D1B012F03DA96F8AB
:1026C0003810090703D5F16801F80090401CB0618B
:1026D0002DB2AF42B8BF3D46F068B3692DB22A466D
:1026E00008EB0401184400F037F9B0692818B0610C
:1026F000781B70627DE0BAF1610F14D14FF0700A5F
:1027000016E0BD4204DA96F83810090758BF2F4684
:102710007F1E48BF0027BAF1670F14BF4FF0450A6C
:102720004FF0650A04E0BAF1410F08BF4FF0500ABC
:10273000B169F368481CB061012F18F8012B5A5495
:1027400003DA96F83810090717D5F168431CB3610E
:1027500001F80090012F10DB6D1E2DB2AF42B8BF03
:102760003D46F0682DB22A464146184400F0F4F880
:10277000B0692818B061781B7062F068B1690144D3
:10278000200081F800A004D42B20487001F1020839
:1027900004E02D224A7001F102086442002502AFD4
:1027A00008E00A22684600F09FFD019807F8010B37
:1027B0006D1C009C21B20129F3DA022D06DA4AF0E1
:1027C0002000652804BF302008F8010B4DB93020E7
:1027D00008F8010B07E06D1E02A8405D303008F8D4
:1027E000010B012DF7DAF068B1690844A8EB00008D
:1027F000F06196F8380000F0140010280DD17069CF
:10280000B1690818716A0818F1690818B16A0818DE
:10281000716B8842BCBF081A306206B0BDE8F08711
:10282000F8B504460D4616461F46002077B116F847
:10283000011BA868A047A86030B1E86A401CE862A4
:1028400000207F1EF3D1F2BD4FF0FF30F2BD00003B
:1028500000000000000000006E616E004E414E005E
:10286000696E6600494E46003000F8B504460D46D4
:1028700016461F4600F04AFD3B4632462946204692
:1028800001B0BDE8F04000F058BD00000278C9B2C8
:102890008A421AB11CBF10F8012FF9E718BF0020B7
:1028A0007047000000F10103810704D010F8011BFC
:1028B00089B18107FAD10268B2F10131914311F077
:1028C000803F04BF50F8042FF6E710F8011B11B148
:1028D00010F8011BFBE7C01A70470000C9B283075C
:1028E00006D0521E22D310F8013B9942F7D11FE0C7
:1028F000083A13D302F1040241EA012141EA0141FD
:1029000050F8043B121F21BF4B40A3F1013C2CEABD
:10291000030C1CF0803FF3D0C9B2001F083210F83E
:10292000013B521E28BF91EA030FF8D818BF0120BF
:10293000401E704780B500F0E9FC012002BD70B573
:1029400004460D46164600F0E1FC32462946204674
:10295000BDE8704000F0E4BC62B38B0708D0521EA3
:1029600011F8013B00F8013B00F024808B07F6D101
:10297000830740F0208000BF103A07D330B4B1E89D
:102980003810103AA0E83810F9D230BC530724BFF1
:10299000B1E80810A0E8081044BF51F8043B40F823
:1029A000043BD20724BF31F8022B20F8022B44BF8E
:1029B0000B7803707047083A07D3B1E80810083A5B
:1029C00040F8043B40F804CBF7D25307E4E700009B
:1029D0001B4213D1094236D12AB18446B0FBF2F032
:1029E00002FB10C2704700F0CBBCFCD300220023D6
:1029F00070470B000200002100207047904271EBED
:102A0000030CF6D370B5B1FA81F4B3FA83F52C1B3D
:102A1000A340C4F1200532FA05F63343A2405FF02B
:102A20000046E64002E05B085FEA3202841A71EB7E
:102A3000030524BF204629467641F4D302000B004B
:102A40003000002170BD012ACFD970B5140C20D000
:102A5000B1FA81F4B2FA82F5C4F120046419B4F138
:102A60002006D6D3B2405FF00044F440002502E0D7
:102A700052085FEA3303C61A71EB020E24BF3046D8
:102A8000714664416D41F3D302000B002000290020
:102A900070BD0C46B1FBF2F102FB11452D0445EA75
:102AA0001045B5FBF2F402FB145580B240EA05452F
:102AB000B5FBF2F002FB105240EA044070BD30B4A6
:102AC000436803F000420121C3F313034360002B6A
:102AD00004BF0368002B08D10DE00368DD0F45EA51
:102AE000440444605B000360491E4468E302F4D57B
:102AF000C4F31303436043681A434260084630BC82
:102B0000704700004FF4001C1CEB410F94BF1CEBFE
:102B1000430F09E041EA030C50EA4C0C52EA0C0C5A
:102B200003D2994208BF9042704714BF8B42824241
:102B3000704700004FF4001C1CEB410F94BF1CEBCE
:102B4000430F09E041EA030C50EA4C0C52EA0C0C2A
:102B500003D28B4208BF8242704714BF9942904211
:102B60007047000070B504460D466068C0F30A5017
:102B700040F2FF71884207D16068000304BF2068FB
:102B8000002817D0022070BD20B92046FFF797FF1C
:102B9000012866DA012D0FDB40F2FF71091A8D4220
:102BA0000AD3606800284CBF9FED2F0B9FED300BC0
:102BB00084ED000B012070BD4142A942616806DA34
:102BC0006FF31E51401941EA0050606040E0401E22
:102BD00063684519012205F1350062F31F5335285A
:102BE00001F00041636003D361600020206070BD8C
:102BF000002015F11F0F04DA206823600022203521
:102C000062606A4212D0401E25688041C2F12003F2
:102C1000C0439D4045EAD07025686668D54006FAF5
:102C200003F32B4323606368D340636062680A4305
:102C3000B0F1004F626003D80DD12078C0070AD5EB
:102C40002068401C2060206828B96068401C6060D3
:102C50004FF0FF3070BD6068884204BF20680028D4
:102C6000F6D1002070BD00BF000000000000F0FFA2
:102C7000000000000000F07FF446400D40EAC12053
:102C8000490006D200F014F8004248BF6FF000403F
:102C9000604700F00DF84FF0004188428CBF0846B5
:102CA00040426047400D40EAC120490080F00D805D
:102CB00040F00040490DA1F58061491C05D4D1F1D7
:102CC0001F0154BFC840C01770474FF00000704745
:102CD000010040F10980F446404200F005F851F04F
:102CE00000416047010000BF09D0B0FA80F1884080
:102CF000C91CC1F58461090501EBD021400570476D
:102D0000F0B44FF0004591EA030F44BF6B4000F070
:102D100043BB00BF841A71EB030604D26E40001B54
:102D2000B141121973414FF4001C1CEB410F34BF29
:102D30007CEB430684E00C0DA4EB1356362E7DDCB1
:102D4000012E43DC45EAC32343EA525312BFD202A9
:102D500092025B08240545EAC12141EA5051D2EBB9
:102D6000C020994125D407D1B0FA80F610FA06F1B7
:102D700064D00020203608E0B1FA81F6B140C6F1F7
:102D8000200220FA02F21143B0404FEAF474B4EB8F
:102D9000465434F001064FEA74040AD8D6F50016FA
:102DA000760D04F00044F04061FA06F25040F14024
:102DB0004840C00A40EA415021F0004128BF5FEA84
:102DC000500550F1000044EBD12137E045EAC32320
:102DD000DB0A45EAC121C90AB6F120050EDD42EA47
:102DE0000242120CC5F1200603FA06F6EB4042EA55
:102DF00006056D42984161F100010DE062FA06F5A9
:102E0000F240554063FA06FC82EA0C02F3405A4055
:102E10006D42904161EB030111F4801F05D1641EE6
:102E2000620502D06D004041494121F48011430800
:102E300075F1004350F1000041EB0451F0BC7047C4
:102E40001CEB410F15D223F0004352EA43060BD08E
:102E50004FEA4C0CBCEB410F04D80C0D661E342E0F
:102E6000B7DDEBE7801A994150EA410608BF00211F
:102E7000E4E708BF1CEB430F28BF6FF00001DDE75C
:102E8000B0B581EA030C0CF0004C40F2FF7515EA76
:102E900011541DBF15EA1357AC42AF4239E0E41993
:102EA00023EA455343F48013C90241F0004141EA4B
:102EB000505EC7021100A7FB020200284FF000007D
:102EC000EEFB01204FF00001E3FB072118BF42F0A9
:102ED0000102401800214941E3FB0E01A4F5806482
:102EE0000F0302D252004041494154F101046CDD0C
:102EF000470872F1004250F1000051EB0451A1F576
:102F000080115CBF41EA0C01B0BD4CEA05510020C4
:102F1000B0BD05EA1357AC4214BFAF4241E050EADE
:102F2000410E1CBF52EA430E02E061460020B0BDD4
:102F300024423C441BD15FEA070EF6D0090302BFCE
:102F400001460020AEF1140EB1FA81F7AEEB070492
:102F500001FA07FE0C37C7F1200100FA07F7C84055
:102F60004EEA000E23EA455343F48013A2E733F000
:102F70000043B3FA83F704BFB2FA82FE77440B3FF3
:102F8000E41BB7F1200E2FBF02FA0EF3BB40C7F1CE
:102F9000200E22FA0EFE38BF43EA0E03BA40641C2C
:102FA00082E750EA410E14BF52EA430E6FF000016F
:102FB0004FF4001717EB430F8ABF194617EB410F69
:102FC000B5E74CEA05510020B0BDD4F10104B4F1DD
:102FD00020070FDAC4F12007520828BF42F001028F
:102FE00010FA07F501FA07F7E1BF2A43E04038433A
:102FF000E1400FE0352C98DCC7F1200452EA400292
:1030000020FA07F218BF42F0010231FA07F0A1409E
:103010000A43002172F1004250F1000051EB0C0113
:10302000B0BD00002DE9F04140F2FF7581EA030CCC
:103030000CF0004C15EA11541DBF15EA1357AC42B1
:10304000AF42E9E0BC41C1F31301C3F31303801A9B
:10305000994143F4801304D2641E40004941801812
:103060005941C90241EA5051B1FBF3F603FB161175
:10307000A2FB0675D7EBC020A94102D2761E8018AC
:103080005941C90241EA5051B1FBF3FE03FB1E1145
:10309000A2FB0E75D7EBC020A94103D2AEF1010E01
:1030A00080185941890241EA9051760546EA8E2EF0
:1030B000B1FBF3F603FB1611A2FB0675D7EB8020DC
:1030C000A94102D2761E80185941C90241EA5051E5
:1030D0004EEA060EB1FBF3F603FB1611A2FB0675D2
:1030E000D7EBC020A94102D2761E80185941C902EF
:1030F00041EA5051B1FBF3F703FB1711A2FB07356F
:10310000D3EBC020A94167F100070CBF004247F094
:10311000010766F3D5274FEA1E31B80814F580641D
:1031200014DDBD0775F1004250EB0E5051EB045118
:1031300011F5801F5CBF41EA0C01BDE8F0814CF045
:103140007F6141F0E0410020BDE8F081BD076D08DE
:1031500040EA0E5041F48011D4F10104B4F120068C
:103160000ADAC4F120060200E04001FA06F3E14069
:103170001843B24015430EE0342C14DCC6F1200491
:1031800045EA40056D0820FA06F2154321FA06F0DB
:10319000A1400D43002175F1004250F1000051EBB8
:1031A0000C01BDE8F08100205FEA0C01BDE8F08170
:1031B000CFB992185B41B3FA83F704BFB2FA82F633
:1031C000BF190B3FB7F120062FBF02FA06F3BB4031
:1031D000C7F1200622FA06F638BF3343BA401CB1C5
:1031E000E419641E2FE77F4231F00041B1FA81F407
:1031F00004BFB0FA80F6A4190B3CB4F120062FBF2F
:1032000000FA06F1A140C4F1200620FA06F638BF04
:103210003143A0403C1B16E7AC421ABF05EA1357E6
:10322000AF4214E050EA41061CBF52EA4306BFE732
:1032300050EA4107304661461CBF41EA0551BDE8EE
:10324000F08152EA430C08BFC143BDE8F081002081
:103250004FF4001616EB410F98BF16EB430F08BF53
:1032600016EB410F24BFC14305E016EB430F0CBF23
:1032700061464CEA0551BDE8F081000080B5134875
:1032800000F0F4F80FF24C020FF2440101604262C8
:1032900041600FF24402826381600FF24402C16018
:1032A0000161416181618162C16201634163C26305
:1032B0000164416401BD10B5044800F0D7F804462C
:1032C000206808B9FFF7DAFF204610BD1000002083
:1032D000000000002E00000066616C7365000000B5
:1032E000747275650000000091FBF2F303FB12118C
:1032F000C0E900317047000010B50446DFF81C003B
:1033000000F0B4F800EB8400006810BD80B5DFF871
:103310000C0000F0ABF8806902BD0000A4000020A2
:1033200030B430B90FF24800D0E90045C2E9004599
:103330001BE00170012030BC704730B431B90FF28E
:103340003800D0E90045C3E900450EE01AB930BCA9
:103350006FF00100704708B10A7802800978481EB2
:10336000804130BCC043C00F7047002030BC704764
:10337000000000000000000000000000000000004D
:1033800070470000F0B44FF0004591EA030C44BFD1
:103390006B40FFF7BFBC00BF841A71EB030603D27A
:1033A000001BB141121973414FF4001C1CEB410F7B
:1033B00034BF7CEB430443E00C0DA4EB1356352ED5
:1033C00050DC45EAC323DB0A45EAC121C912B6F144
:1033D00020050DDD63FA05F6EB4086EA030512428F
:1033E00018BF45F00105C01851F100010CD213E0DF
:1033F00062FA06F5F2405540F3415A40B340F340BB
:103400005A408018594107D349085FEA30005FEA03
:10341000350528BF45F0010501F58011420875F119
:10342000004250F1000041EB0451F0BC4FF4001C8D
:103430001CEB410F38BF70470020090D090570478C
:103440001CEB410F10D252EA43060BD0BCEB410FEC
:1034500005D80C0DAB43661E342EB5DD02E0AB4340
:1034600080185941F0BC7047F0BC704770470000AD
:1034700010B5012822D1DFF8AC4A0022012100F06A
:103480008BF900F086F900F01AF8002200F082F9BA
:1034900000F015F800F07DF900F011F8002200F0BE
:1034A00079F900F00CF800F074F900F008F8DFF892
:1034B000880A406EBDE8104000F00FBE10BD6420C9
:1034C00000F02FBE30B599B000F018FE00F08BF878
:1034D00000F0D9F8DFF8504ADFF8500A60604FF486
:1034E00096450020E06020616061A5600C20A0612D
:1034F0000020E06120626062A062201D00F01EFEDC
:10350000DFF82C0ADFF82C1A016045600021816089
:10351000C16001610C21416100218161C1610162D1
:10352000416200F00BFEDFF8105ADFF8440A286011
:103530004FF4827068600020A8604FF4E060E8609B
:1035400002202861012068614FF40070A8613820D2
:10355000E861002028626862A8620720E862002013
:1035600028636863284601F009F9002020700120D3
:103570006070142214A80FF66021FFF7FDF90021F6
:1035800014A800F06CFD606714220FA80FF65C21F0
:10359000FFF7F2F900210FA800F061FDA0671422E7
:1035A0000AA80FF65C21FFF7E7F900210AA800F04E
:1035B00056FD6866142205A80FF65821FFF7DCF9BE
:1035C000002105A800F04BFDE067142268460FF6C5
:1035D0005821FFF7D1F90021684600F040FDA866A8
:1035E00000F038FDFEE700B5B5B0102006900120D0
:1035F0000C9000200D9060200E9002201090012071
:103600001190129010201390072014900220159012
:10361000169006A801F0A0FC0F20019000210320C5
:1036200002908020039000200490059001A801F0F2
:103630008AFE0A20179000202290249017A802F0FA
:1036400005F8DFF83009016841F080510160006839
:1036500000F08050009000984FF4007002F0A8FA3B
:1036600001F06DFF4FF47A71B0FBF1F002F017FB3F
:10367000042002F02EFB00220F214FF0FF3002F059
:10368000E7FA35B000BD70B5DFF8B008DFF8B04834
:10369000DFF8B058DFF88C6886B0016841F00401AB
:1036A0000160016801F0040100910099016841F096
:1036B00080010160016801F08001009100990168BA
:1036C00041F001010160016801F0010100910099E0
:1036D000016841F00201016001A9006800F00200E8
:1036E000009000984FF44040019000F04EF82046C2
:1036F00002F008FB0120019001A9DFF87C0802908C
:1037000000200390284602F0FDFA022000F03BF86A
:10371000284602F0F7FA0120029040F2013500201D
:1037200003900490019501A9304602F0EBFA4FF4A2
:10373000405000F028F8304602F0E4FA8020019072
:1037400001A901200290002003900490204602F07D
:10375000D9FA4FF4E85000F016F84FF0904002F01C
:10376000D1FA0022294600F086FA0022802100F0DA
:1037700013F800220521062002F06AFA062002F062
:1037800084FA06B070BD019001A900200290039058
:10379000704701224FF48071204602F08BBB2DE967
:1037A000F04104460878DFF888573E284FF6FF7846
:1037B00004D1434605220FF2CC7113E04E2804D108
:1037C000434604220FF2C4710CE0F02804D14346B2
:1037D00005220FF2C07105E0502805D143460422AE
:1037E0000FF2B87100F082FB2078BBA700064CBF37
:1037F000BAA63E4600F059F800F075FB2078400666
:103800004CBFB7A63E4600F050F800F06CFB2078A5
:1038100080064CBFB3A63E4600F047F800F063FBBD
:103820002078C0064CBFB0A63E4600F03EF800F03F
:103830005AFB207800074CBFACA63E4600F035F896
:1038400000F051FB207840074CBFA9A63E4600F08F
:103850002CF800F048FB207880074CBFA5A63E4618
:1038600000F023F800F03FFB2078C00748BFCDA749
:103870003846FFF717F882B24346394600F036FB68
:1038800000F023F928B1434604220FF2187100F02A
:103890002DFBC5A42046FFF705F882B2434621461A
:1038A0002846BDE8F04100F087BC3046FEF7FABF7D
:1038B0002DE9F84304460D461646DFF868861F4694
:1038C00000224FF40071404602F0F4FADFF86896E7
:1038D0004FF47A733A463146484600F0A9FF4FF458
:1038E0007A732A462146484601F03BF84046BDE837
:1038F000F84301224FF4007102F0DCBA2DE9F041E7
:10390000044616460D46B4F900200FF2A061DFF818
:10391000207600F039F800F03AF882B24FF4805384
:1039200000F02EF8002827D1B4F902200FF28461AC
:1039300000F02AF800F02BF84FF6FF7800F01EF8A0
:10394000B4F904200FF2746100F01EF800F01FF8C3
:1039500000F014F8B6F900200FF2686100F014F8D6
:1039600000F015F800F00AF8D4A500F010F882B2C3
:1039700043462946384694E7BDE8F08182B2434683
:103980002946384600F018BC284602F0B7BA284647
:10399000FEF788BFF8B52DED028B05460C4616469E
:1039A000002705EB470000F071F824F817000CBF62
:1039B0009FEDC08B9FEDC28B00B2FFF789F953ECEE
:1039C000182BFFF75DFAFFF757F924F8170001B23B
:1039D00036F92720914206EB8701B8BF26F8270069
:1039E00034F91700B1F902208242B8BF4880B1F91A
:1039F000020036F92710081834F8171000EBD070C1
:103A0000A1EB600024F817007F1C032FC9DBBDEC7D
:103A1000028BF1BD2DE9F0412DED028B0446884665
:103A200015461E4600F038F8002704EB470000F06A
:103A30002DF825F817000CBF9FED9E8B9FEDA08BF6
:103A400000B2FFF745F953EC182BFFF719FAFFF70F
:103A500013F925F8170026F8270035F81700F0802D
:103A60007F1C032FE1DB64274146204600F014F859
:103A7000324629462046FFF78DFF642000F00AFBFE
:103A80007F1EF1D1BDEC028BBDE8F081022F4178A1
:103A9000807840EA0120704738B504460D463E2044
:103AA000287001232A4601212046FFF701FF00F07C
:103AB0000CF80028FBD04E2028702A46204601B082
:103AC000BDE8304001230721F2E64FF48051DFF8D2
:103AD000540402F0E9B9000020200900424D090019
:103AE00057430900534D090045520900534409004A
:103AF00052530900443109002DE970432DED068B26
:103B000082B0B1F90060B1F9025004463046FFF7C7
:103B1000DFF8804689462846FFF7DAF802460B466A
:103B200040464946FFF77EFA41EC180B00F03EF89C
:103B30008DED000BDDE900239FED8F9B00F03EF83B
:103B4000CDE90001DDE900239FED8DAB51EC1A0BAF
:103B5000FFF7D6F8CDE90001012D08DB00F026F8CB
:103B600000F02AF802460B4651EC1A0B0AE0002D31
:103B70000DD500F01BF800F01FF802460B460020A0
:103B8000DFF8F813FFF7BCF8FFF776F803E0002E34
:103B90004CBFB4200020208002B0BDEC068BBDE8F5
:103BA00070830000443009000A0A0D00B0EE480A94
:103BB000F0EE680A02F012BA53EC102B51EC190B1C
:103BC000FFF75EB970B5B0F90000D64D1E2190FB2D
:103BD000F1F44FF4FA7000F05DFA1EE048F6CF26DB
:103BE00000F072F800F070F800F06EF800F06CF879
:103BF000002200F06AF800F067F800F065F800F0C5
:103C000063F800F061F8002200F05FF8761EE7D15B
:103C10004FF4967000F03EFA641EE0B20028DDD149
:103C2000BDE870404FF47A7000F034BAF8B5C24C79
:103C3000BD4DA06EBB4E00F04BFA00F0A5F864201D
:103C400000F028FAA86F00F048FAA06E00F040FAE1
:103C500000F09AF80A2700F00BF8322000F01AFA68
:103C600000F095F8322000F015FA7F1EF3D1E9E755
:103C700001224FF48071304602F01CB970B5AA4C95
:103C8000A84DE06F00F024FA02E0002200F01DF8D9
:103C900020780028F9D0002621788E4239BF0122F1
:103CA000012100220121284602F004F9761C0A2E87
:103CB000F2DBEDE737894160E5D0D23F0A0D000025
:103CC000CFF753E3A59BC43F01220121284602F010
:103CD000F1B8F0B5984C944D606E924E89B000F0FA
:103CE000F7F9686F00F0F4F900F04EF8FFF7C0FF45
:103CF0000A20FDF7D7F80746F0208DF800000123D1
:103D00006A46012101A8FFF7D3FD3A46694601A89A
:103D1000FFF745FD05AB03AA694601A8FFF77AFE48
:103D200000F035F8686F00F0D8F9A86F00F0D5F909
:103D3000606E00F0CDF900F027F8686F00F0C8F968
:103D4000694601A8FFF7A8FE05AA03A901A8FFF785
:103D500021FE03A90DF10200FFF7CEFE687828B11D
:103D60000DF10202394603A8FFF7C8FD0DF102006C
:103D7000FFF728FFD4E70000B5D895D90AA34C4037
:103D80000000000000805640A86F00F0A1B900229A
:103D90004FF48071304602F08DB800002DE9F041FB
:103DA0002DED028B86B0012280216548604DDFF841
:103DB00074815D4F02F07EF8322000F06BF9302004
:103DC0008DF8000002A80FF2042102F097F85EA41B
:103DD0009FED5E8B05E000F08CF84FF47A7000F0F8
:103DE00059F9F86F00F074F900F083F84FF47A7322
:103DF00001226946381D00F0DFF990BB00264FF420
:103E0000805301220DEB0601381D00F024FA1DF845
:103E100006100A2905D00328DDD0761C072EEEDB1C
:103E200001E00328D7D04FF480730A2202A9284664
:103E300000F0C2F9721E4FF4807392B269462846B0
:103E400000F0BAF94FF480730322214600F04EF8D7
:103E500000220021684602F07BF9B0EE408AF0EEC5
:103E6000608A51EC180B01223A4BFEF74BFE38BF2B
:103E7000092031D3384BFEF745FE38BF08202BD33D
:103E8000364BFEF73FFE38BF072025D34FF0804367
:103E9000FEF738FE38BF06201ED3314BFEF732FE48
:103EA00038BF052018D32F4BFEF72CFE38BF042057
:103EB00012D32D4BFEF726FE38BF03200CD32B4B1D
:103EC000FEF720FE38BF022006D32D4BFEF71AFE68
:103ED00038BF3A7001D300203870F86F00F0FDF859
:103EE0004FF496707BE782B243463146284600F095
:103EF00063B900220121404601F0DCBF10B5094C36
:103F000000220421FFF748FC42F2107000F0C2F8D2
:103F1000FFF73FFC4FF47A7000F0BCF800224FF43A
:103F20008071EFE700040048B01D0020004C004005
:103F3000301E002000440040A01E00204C10024013
:103F400000080048001C00480A0D000000000000A6
:103F5000000000000000D03F0000E03F0000F03F04
:103F60000000084000001040000014400000244001
:103F700000380040581002400000111000E070406E
:103F800000003440534D4D3A09000000524D3A09AB
:103F9000000000005253543A0900000052523A09FE
:103FA000000000005244590900000000783A202522
:103FB00035640900793A2025356409007A3A2025CC
:103FC00035640900613A20256409000009090909DE
:103FD000090909643A200000D87B0008FD3E00086A
:103FE000000000000000000080000000E47B0008EA
:103FF0009D3D00080000000000000000800000005F
:10400000F07B0008D33C0008000000000000000026
:1040100080000000FC7B00087D3C000800000000E0
:1040200000000000400000000C7C00082D3C00084F
:104030000000000000000000400000000021842873
:1040400018BFC11C08467047EFF3058000B101207E
:10405000C0B2704780B502F005FA002002BD30B54D
:10406000044685B0B4F908000D46FFF7E7FF0021CC
:1040700003910291009004A901912B4622692168C5
:10408000606892B202F06CF8012814BF0020049816
:1040900005B030BD80B500B9012002F0F1F8002074
:1040A00002BD0446D0E704494FF080500860BFF3DA
:1040B0004F8FBFF36F8F704704ED00E080B502F0C3
:1040C0007DFB01281CBFBDE8014002F04CBC01BDD6
:1040D00080B502F0F2F8002002BD10B5FFF7E1FF55
:1040E0000028204606D002F088F9012804D1FFF705
:1040F000DAFF01E002F053F9002010BD80B5032083
:1041000001F099FD002002F085FC02F0C1FC0020C6
:1041100002BD09480168491C0160704706480068F3
:10412000704738B50446FFF7F9FF0546FFF7F6FF7D
:10413000401BA042FAD331BD601F002038B50400F7
:104140000BD004F16805687818B92870204602F091
:10415000FAFC00F00BF8012801D1012032BD606AA1
:1041600008B100F01BF800F01CF809E002206870AC
:1041700020680168490849000160204600F0D6B86F
:10418000816000F004F8BDE8324000F07FBA20689A
:10419000016841F00101016020467047204600F0AF
:1041A00012BA2068416821F4904141606FF02A0200
:1041B0002068816811407047F8B5044604F1500743
:1041C0000D46787E01281CBF787E22281E4640D1ED
:1041D0000DB1100001D10120F2BD387E012838D088
:1041E000012038760020F861787E22280CBF32202A
:1041F000122078763A807A8001E0216808857888F4
:10420000010015D0401E788033460022802100F046
:104210008AF898B9A068B0F5805F04BF20690028CB
:1042200012BF15F8010B35F8020BC0F30800E4E7E4
:1042300033460022402100F076F808B10320F2BD99
:10424000787E32280CBF2220012078760020387634
:10425000F2BD0220F2BD2DE9F041044604F15807F9
:104260000D46787C01281CBF787C1228984657D1CF
:104270000DB1100001D1012053E0387C01284FD04E
:104280000120387400207861787C12280CBF32201D
:10429000222078743A807A80FF21A068B0F5805F90
:1042A00004D1206928B940F2FF100EE028B9206936
:1042B00008B9B9800AE07F2007E0B0F1805F05D13E
:1042C000206900280CBF7F203F20B880BE8804E012
:1042D0002068808C304025F8020B7888010016D0C9
:1042E000401E788043460022202100F01CF808B1CF
:1042F000032016E0A068B0F5805F04BF20690028A5
:10430000E6D02068808C304005F8010BE5E7787C2A
:1043100032280CBF1220012078740020387400E08D
:104320000220BDE8F081204600F0D6B9F8B5044679
:10433000964B2168DFF858C208681840A3681843F4
:104340002369184363691843E3691843086010261A
:104350004868E36820F44050184348600022002574
:10436000A0698C4B99421CBF276A38438F6827F499
:1043700030673843886061458748884F1FD13F6860
:1043800007F00307032F4AD8DFE807F00238274871
:104390000126E369B3F5004F40F0CF8066B1012EEE
:1043A00000F0A880022E00F0A880042E00F0AC805F
:1043B000082E00F0B280B7E001F0C4F8A6E0DFF804
:1043C000E0C161450BD13F6817F00C0760D0042FA6
:1043D00014D0082F01D00C2F0EE002261FE0DFF8CA
:1043E000C4C161450CD13F6817F0300750D0102F81
:1043F00004D0202FF1D0302F10D010E004260EE092
:10440000DFF8A4C1614523D13F6817F0C0073FD052
:10441000402FF3D0802FE0D0C02F00D10826994242
:10442000B7D1310006D0022E09D0042E32D0082E8A
:1044300033D0A8E001F086F8002800F0A58062687B
:1044400002EB4201884202D31103814228D29AE052
:10445000DFF858C161450CD13F6817F4407717D099
:10446000B7F5807FCAD0B7F5007FB6D0B7F5407FEB
:10447000C2E79942D3D13F6817F4406708D0B7F537
:10448000806FBBD0B7F5006FA7D0B7F5406FB3E72B
:104490000026C4E700F0FCFFCEE74FF40040CEE773
:1044A00036B1022E07D0042E0BD0082E15D01AE0FC
:1044B00001F048F807E000213D4E16EB520049415B
:1044C00007E000F0E5FF6268010E560816EB0020D9
:1044D00069410023FEF77CFA06E0500800F5000071
:1044E000B0FBF2F000E00125A0F54071314A9142A5
:1044F00049D220E001F02EF808E06268500800F18F
:10450000F47000F590400CE000F0C2FF61684A08CA
:1045100002EB4000B0FBF1F207E06268500800F5E2
:104520008030B0FBF2F200E001254FF6F070104051
:10453000C2F342010843216823E046B1012E0BD0AB
:10454000022E0ED0042E10D0082E13D01BE000F047
:10455000F9FF00F031F813E000F0FCFF00F02CF858
:104560000EE0626800EB520008E000F091FF00F0FE
:1045700023F805E06268500800F50040B0FBF2F057
:1045800080B2C86000E001252846F2BDF369FFEF64
:1045900000380140008000400024F40088100240F0
:1045A0000044004000480040004C004000500040E3
:1045B000000024F400FD0F00616800EB5100B0FB27
:1045C000F1F02168704790F82410C90706D50168FA
:1045D0004A68836A22F400321A434A6090F8241031
:1045E000890706D501684A68C36A22F480321A43F3
:1045F0004A6090F82410490706D501684A68036BA1
:1046000022F480221A434A6090F82410090706D544
:1046100001684A68436B22F400421A434A6090F8EA
:104620002410C90606D501688A68836B22F480527B
:104630001A438A6090F82410890606D501688A68B2
:10464000C36B22F400521A438A6090F82410490682
:1046500010D501684A68036C22F480121A434A603C
:10466000026CB2F5801F05D14A68436C22F4C00287
:104670001A434A6090F82410090606D501684A6872
:10468000806C22F4002210434860704770B50446E5
:1046900004F16805002068606FF07E4620680068BD
:1046A000000706D5334600224FF40011FFF73BFE0A
:1046B00050B920680068400708D5334600224FF4FF
:1046C0008001FFF730FE08B1032070BD0120687043
:1046D0000020287070BD00002DE9F84304460E4606
:1046E00091461F46FFF71AFDB9F1000F804604F10D
:1046F00068050FD12068C0693040B0422ED017F154
:10470000010FF7D0AFB1FFF709FDA0EB080087421A
:10471000F0D20EE02068C0693040B0421ED117F1DF
:10472000010FF7D02FB1FFF7F9FCA0EB080087428B
:10473000F0D2206800F015F86FF0200220680168C0
:10474000114001602068016821F48071016000F06F
:104750000EF8687000202870032000E00020BDE8FB
:10476000F28301686FF08002114001607047206899
:1047700081684908490081600120704770B50400D4
:1047800001D1012070BD04F15C05687818B928706A
:10479000204602F0ABF9022068706FF040022068FA
:1047A00001681140016040F20173E2689A4204D34B
:1047B0000021B2F5706F05D106E0B2F5E06F4FF45D
:1047C000805101D00026A662266B26B99A422CBFE2
:1047D0000222012222636268A3681A4323691A43F2
:1047E00063691A43A36903F400731A43E3691A4324
:1047F000236A1A43A36A1A430260226B022A03D176
:10480000026842F400620260A269636A120C02F05C
:1048100004021A43636B1A43E3681A43114341606D
:10482000E16A01610020686001206870002070BDAD
:104830002DE9F84F06468A4693469946FFF76EFCE7
:1048400006F15C05804628780024012808BF022074
:1048500000F08580012028706878012818BF0224A4
:1048600078D1BAF1000F18BFBBF1000F71D003204F
:1048700006F1380768706C60C7F800A0A7F804B0AC
:10488000A7F806B0BC60BC81FC81B1683068B1F5A6
:10489000004F03D1016841F480410160B16AB1F574
:1048A000005F01D100F04AF900F03FF9B0F5E06F88
:1048B00020D906E0386830F8023BCB603860501EE3
:1048C000F880FA8810002FD0316888688007F1D40A
:1048D000B9F1000F26D019F1010FF5D0FFF71EFC3A
:1048E00000F055FAEDD31DE00B88C360881C3860DA
:1048F000901EF880FA88100016D030688168890709
:1049000005D5022A3968EFDA00F045FAF1E7B9F186
:10491000000F07D019F1010FEFD0FFF7FFFB00F0F8
:1049200036FAE7D3032415E000F02DFA00F03BFA45
:104930004946304600F0F4FA08B120206860B068BB
:1049400028B93068C1680091806800900098686854
:1049500000B1012401206870002028702046BDE8C5
:10496000F28F2DE9F04782B00646894692461F46EF
:10497000FFF7D4FB804670680025B0F5827F04BF46
:10498000B068002807D1009753464A46494630464A
:1049900000F0DEF8C1E006F14404207E012808BFE3
:1049A0000220F7D000F006FA18BF022572D1B9F143
:1049B000000F18BFBAF1000F00F0A9800420607644
:1049C000E561C6F84090A4F800A0A4F802A0B56381
:1049D000B587F587B16A3068B1F5005F04D100F0A2
:1049E000ADF86188491E618040F20179F16849455E
:1049F00041682CBF21F4805141F480514160B1687D
:104A0000B1F5004F03D1016821F48041016000F04D
:104A10008CF8484521D207E0306C421C3264097B97
:104A200001706088401E6080608838B33168886893
:104A3000C007F1D46FB317F1010FF7D0FFF76EFB8A
:104A4000A0EB0800B842EFD323E0306CC96820F82F
:104A5000021B30646088401E6080608870B13168DD
:104A60008868C007F1D4A7B117F1010FF7D0FFF79D
:104A700055FBA0EB0800B842EFD30AE000F083F941
:104A800031D13068016841F48051016000F047F88D
:104A900008B103253CE0F268306C31684A4527BF15
:104AA000C9680180097B017000F039F8A0B9F0688D
:104AB0003168B0F5706F08BFC86812D0097BADF8D7
:104AC0000010B0F5E06FBDF8001004BF306B022895
:104AD00009D100F024F810B10220E061D9E7306874
:104AE000007B00F04BF93946304600F0EAF908B196
:104AF0002020E06130688168C90606D5E16941F08F
:104B00000201E1614FF6EF718160E06900B10125BA
:104B100001206076002020762846BDE8F6873B46D7
:104B200001220121304600F04AB90168490603D448
:104B3000016841F040010160F068704701684DF67E
:104B4000FF7211400160016841F40051016070473B
:104B50002DE9F84F0646894692469B46FFF7DEFA56
:104B600006F15C04804620780025012808BF022059
:104B700000F00181012020706078012818BF022513
:104B800040F0F480B9F1000F1CBFBAF1000FBBF187
:104B9000000F00F0EA80052006F1380760706560BC
:104BA000C7F808A0A7F80EB0A7F80CB0C7F8009097
:104BB000A7F806B0A7F804B000F0E5F802D1306815
:104BC000FFF7BCFF40F20171F068884202D2F88919
:104BD000022804DB3068426822F4805203E0306827
:104BE000426842F48052426030680268520603D440
:104BF000026842F040020260F068DDF828908842C6
:104C000042D3F988080012D1F88930BB00F0BBF814
:104C100040F095804B46FFF783FF002840F08680E8
:104C2000F1683068B1F5706F77D1C06885E03068A1
:104C30008268920711D53A6832F8023BC3603A6045
:104C4000491EF98089B2002904BFB16AB1F5005F3D
:104C500003D1016841F480510160F88958B130688E
:104C60008168C90707D5B968C0680880881CB86022
:104C7000F889401EF88119F1010FC2D0FFF74EFAF2
:104C800000F085F8BDD346E0F988080002D1F88924
:104C9000C8B9BBE730688268920714D5022906DBE1
:104CA0003A681388C360901C3860881E02E0396837
:104CB00000F071F8F880F888002804BFB06AB0F5F9
:104CC000005F00F070F8F98908001CD03068826835
:104CD000D20718D5BA6802290EDBC1681180911C71
:104CE000B960F989891EF98189B202290BDA416814
:104CF00041F48051416006E0511CB960007B1070A6
:104D0000F889401EF88119F1010FBDD0FFF706FAAE
:104D100000F03DF8B8D3032528E000F02EF8306B02
:104D200002280CD14B46FFF7FBFE20B1606840F033
:104D300002006060EFE73068007B00F01FF8306829
:104D40008168C90607D5616841F0020161600125EB
:104D50004FF6EF7181604946304600F0E1F810B13E
:104D60002020606001E0606800B1012501206070D2
:104D7000002020702846BDE8F28F007BADF80000CF
:104D8000BDF800007047B06AB0F5005F7047A0EB57
:104D9000080048457047491C3960491E097801736D
:104DA000F888401E704704D13068016841F4805192
:104DB0000160704701202076607E012870472DE950
:104DC000F04104460D4690461F46FFF7A7F90646F8
:104DD000206880682840404516D017F1010FF7D0B1
:104DE00027B1FFF79BF9801BB842F1D300F043F8DD
:104DF00007D1A168B1F5004F18BFB1F5806F00F081
:104E000044F800F049F800E00020BDE8F0812DE909
:104E1000F04182B004460D4616461F46FFF77EF964
:104E20008046206881682940B14221D0B5F5C06F25
:104E300008BF002E04D1007B8DF800009DF8000013
:104E400017F1010FEDD02FB1FFF768F9A0EB0800C3
:104E5000B842E6D300F00FF807D1A168B1F5004FD2
:104E600018BFB1F5806F00F010F800F015F800E001
:104E70000020BDE8F681206841686FF0E002114033
:104E800041606168B1F5827F704704D101686FF0BD
:104E90004002114001607047A16AB1F5005F08D17E
:104EA00001684DF6FF7211400160016841F4005144
:104EB000016004F15C0001214170002101700320B8
:104EC000704738B504460D466068B0F5827F0CD156
:104ED000A068B0F5004F18BFB0F5806F05D120680D
:104EE00001686FF040021140016000F02FF890B9A6
:104EF0006068B0F5827F11D1A068B0F5004F18BF8F
:104F0000B0F5806F0AD12B4600224FF4C0612046D5
:104F1000FFF77DFF10B100F013F832BD002032BD65
:104F200038B50D4604462B4600224FF4C051FFF71A
:104F30006EFF10B900F00AF808B100F001F832BDB8
:104F4000206E40F020002066032070472B46002290
:104F50008021204633E700002DE9F8430446DFF8BE
:104F6000BC562078DFF8AC66C00626D5B06810F0D5
:104F70000C0F3AD13068800702D5A069002832D0E2
:104F8000306800074EBF30686868000900F0F00123
:104F9000206A814206D200F001FB002823D100F0F4
:104FA000BFF905E000F0BCF9206A00F0F7FAD0B9CB
:104FB00000F06EFAB26800F057FA2078C00774D596
:104FC00000F0AAF9082808D000F0A6F90C2802BFC2
:104FD000F06800F0030003282AD13068800364D50C
:104FE0006068002861D101208BE1A0690028306849
:104FF00010D040F0010000F086F9074630688007C5
:1050000005D4FFF78BF8C01B0328F7D376E100F037
:1050100087F9D2E74008400000F075F9074630688C
:105020008007CAD5FFF77AF8C01B0328F7D365E1DC
:1050300000F06CF920F4802000F065F90746306834
:10504000800305D5FFF76AF8C01B6528F7D355E143
:105050006068B0F5803F07D0B0F5A02F00F056F99A
:1050600006D140F480203060306840F4803001E0A8
:1050700020F480203060606858B1FFF74FF8074691
:105080003068800311D4FFF749F8C01B6528F7D3B7
:1050900034E1FFF743F807463068800305D5FFF792
:1050A0003DF8C01B6528F7D328E12078800719D583
:1050B00000F032F9042808D000F02EF90C2802BFC5
:1050C000F06800F00300022822D13068400502D5C4
:1050D000E068002887D07068216920F0F85040EA25
:1050E000016070602078000741D560690028686819
:1050F0002ED040F001006860FFF710F8074668689E
:10510000800734D4FFF70AF8C01B0328F7D3F5E073
:10511000E068002830680DD040F4807000F0F3F8AB
:10512000074630684005D6D4FEF7F8FFC01B0328B9
:10513000F7D3E3E020F4807000F0E5F8074630682C
:105140004005CFD5FEF7EAFFC01B0328F7D3D5E013
:10515000400840006860FEF7E1FF07466868800786
:1051600005D5FEF7DBFFC01B0328F7D3C6E0207888
:10517000400767D5B06DC0004FF000080AD4B06D8D
:1051800040F08050B0654FF00108B06D00F08050E5
:1051900000900098DFF88894D9F80000C00512D478
:1051A000D9F8000040F48070C9F80000FEF7B6FF9F
:1051B0000746D9F80000C00505D4FEF7AFFFC01BB5
:1051C0000328F6D39AE0A06801280CD008B9286813
:1051D0000DE0052828680AD14008400028602868AA
:1051E00040F004002860286840F0010006E0400814
:1051F000400028606FF0040128680840286041F2F0
:105200008939A06858B1FEF789FF074628688007EA
:1052100011D4FEF783FFC01B4845F7D36EE0FEF7BD
:105220007DFF07462868800705D5FEF777FFC01B7E
:105230004845F7D362E0B8F1000F03D0B06D20F01D
:105240008050B065A06A00285AD0B16801F00C0106
:105250000C293FF4C8AE0228306820F0807030601E
:1052600038D1FEF75BFF07463068800105D5FEF7B1
:1052700055FFC01B0328F7D340E0206B616B401E35
:10528000090241EA0010A16B090940EA4140E16AC4
:105290000843E16B891E0905490D40EA4150216C24
:1052A000891E090601F07E410843F060306840F035
:1052B00080703060F06840F08070F060FEF72EFF84
:1052C0000746306880011BD4FEF728FFC01B032867
:1052D000F7D313E0F068DFF84C1380088000F0602B
:1052E000F0680840F060FEF719FF0746306880015B
:1052F00006D5FEF713FFC01B0328F7D3032000E0F9
:105300000020BDE8F2833060FEF708BF306820F46B
:105310008030306030687047B06800F00C00704733
:10532000306840F0080030606FF0F00130680840ED
:10533000216A084330607068E16920F47F4040EAE8
:105340000120706070472DE9F843DFF8DC62044605
:105350003068884600F00700404502D200F08EF821
:1053600065D12078DFF8AC72800706D5B8686FF099
:10537000F0010840A1680843B8602078C0074ED506
:105380006068022802D13968890308E0032802D145
:105390003968890103E00028396802D1890702D4FD
:1053A00045E0490543D5B968890840EA8100B860FD
:1053B00041F28939FEF7B2FE0546606802280AD13B
:1053C000B86800F00C00082829D0FEF7A7FE401BA3
:1053D0004845F5D321E003280AD1B86800F00C0055
:1053E0000C281CD0FEF79AFE401B4845F5D314E06C
:1053F00048B9B86810F00C0F11D0FEF78FFE401BB3
:105400004845F6D309E0B86800F00C00042806D03F
:10541000FEF784FE401B4845F5D3032022E03068A8
:1054200000F00700804504D200F028F801D00120E8
:1054300018E02078400705D5B868E16820F4E060FE
:105440000843B8602078000706D5B868216920F4C1
:10545000605040EAC100B86000F01AF8BA6800F085
:1054600003F80020BDE8F2837049C2F30312895C9F
:10547000C84069490860002001F0CCBA3068C00813
:1054800048EAC0003060306800F0070040457047CF
:1054900060498B680022002013F00C0F09D08B6844
:1054A00003F00C030C2B02BFCB6803F00303012BAA
:1054B00013D10A68120704D45E4A1268C2F30322A9
:1054C00002E00A68C2F303125B4B53F822208B6898
:1054D00013F00C0F0ED110460CE08B6803F00C0398
:1054E000042B08BF554805D08B6803F00C03082B2C
:1054F00008BF53488B6803F00C030C2B1ED1C868FF
:10550000CB68C3F302135B1C00F00300022802D037
:10551000032802D005E0494800E04948B0FBF3F019
:1055200001E0B2FBF3F0CA68C968C1F34161C2F39C
:105530000622491C50434900B0FBF1F07047364841
:105540000068704734483A4A006812683D49C2F31F
:10555000022206E03048364A006812683949C2F330
:10556000C222895CC84070470F220260304A13682B
:1055700003F003034360136803F0F00383601368D0
:1055800003F4E063C3601268D20802F4E0620261CF
:105590002548006800F007000860704770B52A4E83
:1055A00082B0054630680024C00002D500F0FAFA47
:1055B0000EE0306840F080503060306800F080507D
:1055C0000090009800F0EEFA316821F080513160CF
:1055D000B0F5007F04D1812D0DD3A12D0AD305E0B4
:1055E000812D28BF032406D2802D01D1022402E0A0
:1055F000702D00D101240C480168C90844EAC1019A
:105600000160006800F00700A04214BF01200020E4
:1056100076BD0000001002400C00002090100240F7
:1056200000700040FFFFEEFE00200240987B000863
:105630000810024094100240A87B00080024F400E7
:1056400000127A00687D0008581002402DE9F84FDA
:10565000044600272068DFF84055DFF84065000564
:10566000B84624D5606D70B1B0F5800F18D0B0F594
:10567000000F03D0B0F5400F09D016E0E86840F401
:105680008030E86005E0201D00F0DAF907463800B8
:105690000CD13068616D20F440000843306006E0B2
:1056A00004F1180000F033FAF0E70127B84620684B
:1056B000C00424D5A06DB0B1B0F1807F18D0B0F196
:1056C000007F03D0B0F1407F04D016E0E86840F4DA
:1056D0008030E860380011D13068A16D20F0407052
:1056E000084330600BE0201D00F0AAF90746F1E7FF
:1056F00004F1180000F00BFAF8E70127B84620681B
:10570000800356D5A86DC0004FF000090AD4A86DDB
:1057100040F08050A8654FF00109A86D00F080505E
:1057200000900098DFF878A4DAF8000040F4807068
:10573000CAF80000FEF7F2FC8346DAF80000C00564
:1057400006D4FEF7EBFCA0EB0B000328F5D327E013
:10575000380026D1B068616F00F44070884200F0D4
:105760009C80B068B16841F48031B16020F4407031
:10577000B16821F48031B160B06000F0020002280D
:1057800040F08B80FEF7CAFC0746B068800700F146
:105790008480FEF7C3FCC01B41F289318842F4D3F8
:1057A0000327B846B9F1000F03D0A86D20F0805050
:1057B000A8652078C00705D53068A16A800841EA4D
:1057C000800030602078800706D530686FF00C01CB
:1057D0000840E16A084330602078400706D5306809
:1057E0006FF030010840216B0843306020780007DB
:1057F00006D530686FF0C0010840616B0843306027
:105800002078C00605D53068A16B20F440700843AD
:1058100030602078800605D53068E16B20F4406068
:10582000084330602068800505D53068E16C20F4BD
:105830004020084330602068400505D53068216D60
:1058400020F44010084330602078400605D53068C9
:10585000216C20F44050084330602078000605D5C4
:105860003068616C20F44040084330602068C00517
:1058700005D53068A16C20F44030084330602068C2
:1058800080041AD53068E16D00F0C5F8E06DB0F124
:10589000006F09D100F0CFF80FE0B068616F20F41D
:1058A00040700843B0607DE7B0F1806F05D1201DE6
:1058B00000F0FAF8070018BF80462068000313D5EF
:1058C0003068216E00F0A7F8206EB0F1006F02D1B1
:1058D00000F0B1F808E0B0F1806F05D1201D00F0B4
:1058E000E3F8070018BF80462068400313D53068EE
:1058F000616E00F090F8606EB0F1006F02D100F0C0
:105900009AF808E0B0F1806F05D1201D00F0CCF8C6
:10591000070018BF80462068400467D53068A16E34
:1059200020F0405008433060A06EB0F1805F2CD171
:10593000286820F0806000F07BF8074628680001A6
:1059400005D5FEF7EBFBC01B0328F7D347E028691A
:10595000616800F004F928612869216900F060F8A5
:105960002861286840F0806000F062F807462868E7
:10597000000105D4FEF7D2FBC01B0328F7D32EE0AD
:10598000286961690843286130E0B0F1005F2DD1DA
:10599000286820F0805000F04BF807462868800007
:1059A00005D5FEF7BBFBC01B0328F7D317E06869DA
:1059B000A16900F0D4F868616869216A00F030F8E4
:1059C0006861286840F0805000F032F80746286887
:1059D000800007D4FEF7A2FBC01B0328F7D34FF0CB
:1059E000030803E06869616A08436861206800048D
:1059F00005D53068E16E20F08040084330602068B3
:105A0000C00305D53068216F20F0004008433060A6
:105A10004046BDE8F28F20F0406008433060704798
:105A2000891E090620F0C06001F07E4108437047DE
:105A30002860FEF773BBE86840F48010E8607047A8
:105A4000F8B500F028F807463068000105D5FEF7E4
:105A500065FBC01B0328F7D30EE000F04FF800F001
:105A600083F800F011F807463068000106D4FEF70D
:105A700055FBC01B0328F7D3032503E030692169D8
:105A8000084330612846F2BD3061306840F08060E4
:105A90003060FEF743BB404E0446306820F0806023
:105AA00030600025FEF73ABBF8B5FFF7F4FF074674
:105AB0003068000105D5FEF731FBC01B0328F7D382
:105AC00014E000F01BF8A168891E090520F4C0004D
:105AD000490D40EA4150FFF7D7FF07463068000103
