:020000040800F2
:10000000B00500208D690008B9690008BD690008C5
:10001000C1690008C5690008C9690008000000003E
:10002000000000000000000000000000494000083F
:10003000CD69000800000000ED3F00089D69000840
:10004000D1690008D5690008D9690008DD69000890
:10005000E1690008E5690008E9690008ED69000840
:10006000F1690008F5690008F9690008FD690008F0
:10007000016A0008056A0008096A00080D6A00089C
:10008000116A0008156A0008196A00081D6A00084C
:10009000216A0008256A0008296A00082D6A0008FC
:1000A000316A0008A1690008356A0008396A000849
:1000B0003D6A0008416A0008456A0008496A00086C
:1000C0004D6A0008516A0008556A0008596A00081C
:1000D0005D6A0008616A0008656A0008696A0008CC
:1000E0006D6A0008716A0008756A0008796A00087C
:1000F0007D6A0008816A0008856A0008896A00082C
:100100008D6A0008916A0008956A0008996A0008DB
:100110009D6A0008A16A0008A56A0008A96A00088B
:10012000AD6A0008B16A0008B56A0008B96A00083B
:10013000BD6A0008C16A0008C56A0008C96A0008EB
:10014000CD6A0008D16A0008D56A0008D96A00089B
:10015000DD6A0008E16A0008E56A0008E96A00084B
:10016000ED6A0008F16A0008F56A0008F96A0008FB
:10017000FD6A0008016B0008056B00080000000024
:10018000096B00080D6B0008116B0008156B000867
:10019000196B00081D6B0008216B0008256B000817
:1001A000296B00082D6B0008316B0008356B0008C7
:1001B000396B00083D6B0008416B0008456B000877
:1001C000496B00084D6B00084FF4E0721044026860
:1001D000914203D343681A44914202D380680028B5
:1001E000F5D17047DFF85C07016891B94FF48031B1
:1001F00081604FF4805141604FF0FF31C160016177
:100200000421DFF844274161C2F8BC11DFF83C1734
:1002100001600120704701F1080313F0070305D0C6
:1002200001F10803C3F1080303F007031944D21ACC
:100230008161C26042F001034B60114428234B608E
:10024000DFF800170969C16170472DE9F84F0646CC
:1002500001F1080010F0070008BF884607D001F13F
:100260000800C0F1080000F0070001EB000802F1EF
:10027000080010F0070006D002F10800C0F10800E5
:1002800000F0070002441546A5EB0800A0EB0309A7
:1002900008EB030B43F00300C8F80400AB4528BF8C
:1002A00001F00CFA2879C00758BF01F007FAB9F13C
:1002B000100F38BF01F002FAB069854209D1F06829
:1002C0004844F060C6F818B040F00100CBF80400D4
:1002D00070E1706985420BD1B0684844B060C6F8DF
:1002E00014B040F00101CBF804104BF8000061E1BC
:1002F000686800F00301012940F0AF80C008C00029
:100300000190C00820283BD2D5F808A0EF680090E3
:10031000BD4208BF01F0D2F9554508BF01F0CEF942
:1003200068680099C008C000B0EBC10F18BF01F0A9
:10033000C5F9009806EBC00000F128018A4508D0F5
:1003400031698A45C0F08480DAF80C10A94240F087
:100350007F80574506D1009A30680121914088433B
:10036000306077E02830874205D0306987426FD30C
:10037000B868A8426CD1CAF80C70C7F808A069E048
:10038000EF68D5F818A0AF420CD0A8683169884250
:1003900023D3C168A94204BFB968A9421DD1C7606F
:1003A000B8601CE005F11400076837B905F11000CA
:1003B0000768A7B101E00846076807F114010A6859
:1003C000002A02BF07F110010A68002AF3D131693F
:1003D000884202D30021016001E001F06FF9BAF117
:1003E000000F37D0E86906EB80004FF4987108449D
:1003F00001688D4208D10760A7B9EA6970680121D8
:1004000091408843706025E03069824508D3DAF86E
:100410001000A84214BFCAF81470CAF8107001E0A6
:1004200001F04CF9B7B13069874211D3C7F818A071
:10043000296929B1814226BF39618F6101F03EF9F6
:10044000686938B13169884202D37861876101E017
:1004500001F034F90198054481446868400840007F
:1004600068604FEAD90549F00100CBF804004BF869
:100470000990202D23D206EBC50000F12807BA46CB
:10048000B9F1100F38BF01F019F9306820FA05F101
:10049000C90704D40121A9400843306006E0B868C8
:1004A000316988422CBF824601F008F9C7F808B0CC
:1004B000CAF80CB0CBF808A0CBF80C707AE05FEA71
:1004C000192108BF002023D0B1F5803F28BF1F208D
:1004D0001ED2A1F58070000C00F008008140A1F54B
:1004E0008052120C02F004029140A1F580431B0CD3
:1004F000C0F10E0003F00203801AC01A994000EB0D
:10050000D130C11D29FA01F202F0010101EB4000D6
:1005100006EB80014FF498721144CBF81C000022C6
:10052000CBF81420CBF81020726822FA00F3DB0716
:1005300007D4012303FA00F010437060C1F800B043
:100540001DE009681F281DBF4008C0F1190009FA05
:1005500000F0484600E011464A68D208D2004A45F9
:1005600014D0C20F01EB820202F1100340001A689E
:10057000002AF0D1306983421AD3C3F800B0CBF817
:100580001810CBF80CB0CBF808B013E032698868CB
:10059000914228BF90420BD3C0F80CB0C1F808B00C
:1005A000CBF80800CBF80C100020CBF8180001E0C5
:1005B00001F084F808F10800BDE8E68F2DE9FA4D56
:1005C0000546DFF88003006882B008B9FFF70AFE2D
:1005D000DFF870030299806841182F31401E21EA2C
:1005E00000000299814280F0A9814FF4D8716E1801
:1005F000B16839B132688018824280F09F818142AF
:10060000C0F09C8101F062F800281EBF0446D0F8BB
:10061000008014F1010F00F091813068716840444E
:100620008142306038BF01467160A86980BB28698B
:1006300008B1844200D22C610020F0613461C6F818
:10064000148005F12801BF48006868624FF0FF3050
:1006500028620020C960896001F108024A610A61CC
:10066000801C10312028F5D3B748854203D1A8F16A
:10067000280221462AE055F8040CC00805EBC0000A
:10068000A0F1080104EB0800401AA0F128021DE0C7
:100690004FF4E0702918084600E08068D0B1026885
:1006A00043681A449442F8D1027B120712D4AA6913
:1006B00003689A420ED347683B449A420AD208EB39
:1006C00007014160E868A96908EB00022846FFF7C6
:1006D000A2FD1DE128698442084638BF2C6104EB65
:1006E000080100E0806880B102688A42FAD1017B8B
:1006F00009070AD404604168414441602146029BD5
:10070000284604B0BDE8F04D9FE5AF69394628465C
:10071000FFF75AFD4FF0000B016840680844019054
:10072000273810F0070101990EBF0020C0F1080022
:1007300000F0070008442F3807F11001884234BF49
:1007400000970090009804F1080100F1180A11F0D8
:100750000701A8F1280005D004F10801C1F1080142
:1007600001F00701401A2144A961E86040F001024C
:100770004A6008442822426072480069E861009893
:10078000083010F0070018BF00F098FF00991B20F8
:1007900048604FF4E0712944B1E80C5000980830EB
:1007A000A0E80C503461C6F81480C6F81CB000985C
:1007B0000830B061019801E00AF1040A0721CAF883
:1007C00004100BF1010B0AF108018142F4D3BBF1D3
:1007D000020FB8BF00F072FF0098B84200F0988096
:1007E000C01B3918C4084A68520852004A6040F0D9
:1007F000010179603850202C20D205EBC40101F1B1
:100800002806B046102838BF00F058FF286820FAA4
:1008100004F1C90704D40121A1400843286006E07F
:10082000B068296988422CBF804600F047FFB76056
:10083000C8F80C70C7F80880FE6069E0010A23D090
:10084000B1F5803F28BF1F211ED2A1F58072120C86
:1008500002F008029140A1F580531B0C03F0040341
:100860009940A1F58044240CC2F10E0204F0020468
:10087000D21A121BA14002EBD131CA1D20FA02F399
:1008800003F0010202EB410105EB81024FF4987382
:100890001A44F96100237B613B616B6823FA01F420
:1008A000E40705D4012088401843686017601CE005
:1008B00012681F291DBF4908C1F1190100FA01F191
:1008C000014600E01A465368DB08DB00834210D083
:1008D000CB0F02EB830303F1100449002368002BC4
:1008E000F0D12869844211D32760BA61FF60BF60EC
:1008F0000EE0296990688A4228BF884206D3C76003
:100900009760B860FA600020B86101E000F0D6FEA0
:10091000E8680299814211D2401AE860A969029AF6
:100920000A44AA6140F001005060029840F00300C0
:10093000486004B001F10800BDE8F08D002004B06B
:10094000BDE8F08DBC470020C84300206859883CB2
:100950002DE9F84F0446002689465FEA1920C9F1BF
:10096000000B08BF002123D0B0F5803F28BF1F2116
:100970001ED2A0F58071090C01F008018840A0F595
:100980008052120C02F004029040A0F580431B0C30
:10099000C1F10E0103F00203891AC91A984001EB54
:1009A000D030C11D29FA01F202F0010101EB400132
:1009B00004EB8100D0F8300118B31F290FBF4A465D
:1009C0004A08C2F1190209FA02F2002300E05200BB
:1009D0004568ED08ED00A5EB09055D4503D25FEA2A
:1009E000050B06460BD04569D70F00EB8700002D9D
:1009F00000691CBF85422B460028E8D11846B8BBC9
:100A0000C6BB01208840400041420843616808405D
:100A100000F05D8141420840401E010B01F01001D1
:100A2000C840420902F00802D040830803F00403E2
:100A3000D840450805F002055118E8405918C0F3A0
:100A4000400729443944F840401804EB8000D0F8AE
:100A500030010DE008464168C908C900A1EB090151
:100A600059453CBF8B46064601690029F2D14069D1
:100A70000028F0D1002E00F02A81A068A0EB090028
:100A8000834580F0248120698642C0F01E81706811
:100A9000C00809EB0B08C000404518BF00F00EFE6F
:100AA00006EB0905AE4280F01081F768D6F818A071
:100AB000B7420CD0B0682169884223D3C168B142E3
:100AC00004BFB968B1421DD1C760B8601CE006F12F
:100AD0001400076837B906F110000768A7B101E0F4
:100AE0000846076807F114010A68002A02BF07F1E7
:100AF00010010A68002AF3D12169884202D300213B
:100B0000016001E000F0DAFDBAF1000F39D0F069C0
:100B100004EB80004FF49871084401688E4209D1BB
:100B20000760380014D1F269606801219140884360
:100B3000606026E02069824508D3DAF81000B042F0
:100B400014BFCAF81470CAF8107001E000F0B6FDC6
:100B5000BFB12069874212D3C7F818A0306930B1FD
:100B60002169884226BF3861876100F0A7FD70695E
:100B700038B12169884202D37861876101E000F0D1
:100B80009DFDBBF1100F09D248F00300706006EB29
:100B90000800416841F00101416095E049F003001F
:100BA00070604BF0010068604FEADB0045F80BB065
:100BB00020281DD204EBC00101F12807216821FA89
:100BC00000F2D207BB4605D4012202FA00F0084326
:100BD000206006E0B868216988422CBF834600F097
:100BE0006DFDBD60CBF80C50C5F808B0EF606BE050
:100BF0005FEA1B2023D0B0F5803F28BF1F201ED204
:100C0000A0F58071090C01F008018840A0F5805220
:100C1000120C02F004029040A0F580431B0CC1F1BD
:100C20000E0103F00203891AC91A984001EBD03073
:100C3000C11D2BFA01F202F0010101EB400004EBAF
:100C400080014FF498721144E86100226A612A61C0
:100C5000626822FA00F3DB0706D4012303FA00F0EE
:100C6000104360600D601CE009681F281DBF40082C
:100C7000C0F119000BFA00F0584600E011464A682E
:100C8000D208D2005A4510D0C20F01EB820202F105
:100C9000100340001A68002AF0D12069834211D362
:100CA0001D60A961ED60AD600EE022698868914227
:100CB00028BF904206D3C5608D60A860E96000201F
:100CC000A86101E000F0FAFC08E100F0F7FC02E1A5
:100CD0002DE9F84F04468846606841420840401EAE
:100CE000010B01F01001C840420902F00802D04097
:100CF000830803F00403D840450805F002055118A5
:100D0000E8405918C0F3400629447118F0404018D3
:100D100004EB8000D0F830014168C908C9000646DC
:100D2000A1EB080A09E008464168C908C900A1EB1F
:100D3000080151453CBF8A46064601690029F2D1A7
:100D400040690028F0D120698642C0F0C2807068F6
:100D5000C00808EB0A09C000484518BF00F0AEFC07
:100D600006EB080B5E4580F0B480F768B569B742C2
:100D70000CD0B0682169884223D3C168B14204BF56
:100D8000B968B1421DD1C760B8601CE006F114001B
:100D9000076837B906F110000768A7B101E00846F7
:100DA000076807F114010A68002A02BF07F1100161
:100DB0000A68002AF3D12169884202D30021016028
:100DC00001E000F07BFC002D35D0F06904EB8000E1
:100DD0004FF49871084401688E4209D107603800C9
:100DE00011D1F2696068012191408843606022E07E
:100DF0002069854205D32869B04214BF6F612F6115
:100E000001E000F05BFCB7B12069874211D3BD61FE
:100E1000306930B12169884226BF3861876100F0AE
:100E20004DFC706938B12169884202D378618761CD
:100E300001E000F043FCBAF1100F09D249F00300C1
:100E4000706006EB0900416841F0010141603FE03C
:100E500048F0030070604AF00100CBF804004BF842
:100E60000AA0D4F808804FEAD805202D28BF00F04A
:100E700025FCB8F1000F27D0D4F81490009504EBAE
:100E8000C50000F128052F46B8F1100F38BF00F05B
:100E900015FC2068009920FA01F2D10705D4009AC8
:100EA000012191400843206006E0A868216988423A
:100EB0002CBF074600F002FCC5F80890C7F80C905C
:100EC000C9F80870C9F80C50C4F808A0C4F814B0E8
:100ED00004E000F0F3FB0020BDE8F28F06F108000B
:100EE000BDE8F28F2DE9F04F83B00546C046C046FD
:100EF000F52DDFF8C04780F002810B2D31BF1027A0
:100F000005F10B00C708FF002068FE08F04010F054
:100F1000030F42D0C04300F00100861904EBC60065
:100F200000F12808F700D8F808506868C008C00029
:100F3000B84218BF00F0C2FBD5F80890454508BF7D
:100F400000F0BCFB4D4508BF00F0B8FB6868C00866
:100F5000C000B84218BF00F0B1FBC84505D12068F9
:100F60000121B140884320600DE02069814508D30C
:100F7000D9F80C00A84204D1C8F80890C9F80C8030
:100F800001E000F09BFB47F003006860E8190835BA
:100F9000416841F001014160F9E0A168B94280F087
:100FA000C080002800F0A280012505FA06F1490062
:100FB0004A42B0401143084041420840401E010BE4
:100FC00001F01001C840420902F00802D040830835
:100FD00003F00403D840460806F002065118F0401A
:100FE0005918C0F340087118414420FA08F000EB8A
:100FF000010804EBC80000F128094FEAC80AD9F833
:1010000008607068C008C000504518BF00F056FB6B
:10101000D6F808B04E4508BF00F050FB5E4508BF4B
:1010200000F04CFB7068C008C000504518BF00F0CD
:1010300045FBD94505D1206805FA08F188432060B1
:101040000DE02069834508D3DBF80C00B04204D1E1
:10105000C9F808B0CBF80C9001E000F02FFB47F086
:1010600003007060AAEB0708F019019048F0010036
:1010700001994860019840F80880A7684FEAD70AAC
:10108000BAF1200F28BF00F019FB47B3CDF800A03C
:1010900004EBCA00D4F8149000F1280AD346102FAC
:1010A00038BF00F00BFB2068009920FA01F2D1074D
:1010B00005D4009905FA01F10843206007E0DAF849
:1010C0000800216988422CBF834600F0F7FACAF86D
:1010D0000890CBF80C90C9F808B0C9F80CA0C4F877
:1010E000088006F108050198606150E06068C0B3AF
:1010F00039462046FFF7ECFD050012D047E015F118
:10110000400F28BF4FF0FF370BD205F10B00C70887
:101110006068FF0028B139462046FFF719FC05003A
:1011200035D1A068B8421CD3C11B626910290AD30B
:10113000D0196061A16041F001034360415047F064
:10114000030050600AE00021A160616140F00301EA
:1011500051601044416841F00101416002F108050D
:1011600015E0E06887420DD2C01BA169E060CA1992
:10117000A26140F00100506001F1080547F0030052
:10118000486004E039462046FFF718FA0546C04695
:10119000C046284603B0BDE8F08F00B970472DE97E
:1011A000F047A0F10804C046C046DFF8085528699A
:1011B0008442C0F07982616801F00302012A00F0E4
:1011C0007382CA084FEAC208CA0704EB080937D479
:1011D000226811F0030F00F0698251420C448442EE
:1011E0009044C0F0618269698C4200F0D980D608D1
:1011F000202E70D2D4F80CA0A768544508BF00F088
:101200005DFABC4208BF00F059FA6068C008C0002F
:10121000B0EBC60F18BF00F051FA05EBC60000F1A5
:1012200028018F4205D029698F4251D3F968A14224
:101230004ED1BA453DD128680121B140884328608C
:101240004C4580F03182D9F80400C10740F12C826E
:10125000810700F17D81A969894540F0B680E86881
:10126000AC614044E86040F00101616069698C4212
:1012700002D100216961A960E969814280F016828A
:10128000DFF83404006808B9FEF7ACFFA96900294B
:1012900000F00C82E868292824BF2846FEF794FF56
:1012A000E869E968884280F001824FF0FF30E86128
:1012B000FCE12830824506D02869824508D3DAF857
:1012C0000800A04204D1C7F80CA0CAF80870B7E71C
:1012D00000F0F4F9B4E7E768A669A7420BD0A1686B
:1012E000814222D3C868A04204BFB868A0421CD182
:1012F000CF60B9601BE004F114010F6837B904F145
:1013000010010F689FB101E011460F6807F1140248
:101310001368002B02BF07F110021368002BF3D1F2
:10132000814202D30020086001E000F0C7F9002EDE
:1013300086D0E06905EB80004FF49871084401689D
:101340008C4209D10760380011D1E2696868012137
:1013500091408843686073E72869864205D3306905
:10136000A04214BF7761376101E000F0A7F9002FB8
:101370003FF466AF28698742AAD3BE61216929B1CB
:10138000814226BF39618F6100F098F960690028B9
:101390003FF456AF296988429AD3786187614FE755
:1013A00099F8040000F0030003287FF449AFC5F862
:1013B0000880D9F8040040084000C9F8040048F04B
:1013C0000100606044F8088070E16969894508D1CE
:1013D000A8686C614044A86040F001016160205041
:1013E00064E1C008C0004FEAD00ABAF1200F80447F
:1013F00037D2D9F80C70D9F80860B94508BF00F0A9
:101400005DF9B14508BF00F059F9D9F80400C008EA
:10141000C000B0EBCA0F18BF00F050F905EBCA00CE
:1014200000F128018E4207D029698E42C0F08380E6
:10143000F168494540F07F80B74206D12868012114
:1014400001FA0AF18843286077E02830874205D006
:10145000286987426FD3B86848456CD1F760BE6091
:101460006BE0D9F80C70D9F818604F450DD0D9F859
:1014700008002969884223D3C168494504BFB96877
:1014800049451DD1C760B8601CE009F11400076828
:1014900037B909F110000768A7B101E008460768ED
:1014A00007F114010A68002A02BF07F110010A6857
:1014B000002AF3D12969884202D30021016001E0AA
:1014C00000F0FCF8002E38D0D9F81C0005EB8000A5
:1014D0004FF498710844016889450AD107603800C3
:1014E00012D1D9F81C2068680121914088436860B6
:1014F00023E02869864205D33069484514BF7761E7
:10150000376101E000F0DAF8BFB12869874212D3F1
:10151000BE61D9F8101029B1814226BF39618F61AF
:1015200000F0CCF8D9F8140038B12969884202D308
:101530007861876101E000F0C1F848F00100606067
:1015400044F80880686984420BD1C5F80880ADE092
:1015500040084000C9F8040048F00100606044F809
:1015600008804FEAD807202F22D205EBC70000F1F0
:1015700028094E46B8F1100F38BF00F09FF82868D0
:1015800020FA07F1C90704D40121B94008432860B3
:1015900007E0D9F80800296988422CBF064600F008
:1015A0008DF8C9F80840F460A660C4F80C907DE09E
:1015B0005FEA182008BF002123D0B0F5803F28BF84
:1015C0001F211ED2A0F58071090C01F0080188408E
:1015D000A0F58052120C02F004029040A0F5804366
:1015E0001B0CC1F10E0103F00203891AC91A9840BD
:1015F00001EBD030C11D28FA01F202F0010101EB2C
:10160000400105EB81004FF49872104400226261A2
:101610002261E1616A6822FA01F3DB0706D4012343
:1016200003FA01F11143696004601CE000681F299E
:101630001DBF4908C1F1190108FA01F1414600E056
:1016400010464268D208D200424510D0CA0F00EBC3
:10165000820202F1100349001A68002AF0D12969B8
:101660008B4211D31C60A061E460A4600EE02A6983
:101670008168904228BF914206D3CC608460E060CC
:10168000A1600020A06101E000F018F8286A401E67
:1016900028620BD1D5F8C80100E080680028FCD191
:1016A0004FF0FF30286201E000F008F8C046C04665
:1016B000BDE8F087C8430020BC470020012000F0AF
:1016C0001BB80268531C0360117070470749086813
:1016D00008B1002070470648C008C00008600549EE
:1016E000C908C900091A0160704700BFD847002027
:1016F000B7050020B007002080B5C046C046024AAA
:1017000011001820ABBEFBE7260002002DE9F04FC8
:1017100082460FF25060A5B015461E46D0E9002360
:10172000CDE91223002004910D900DF150086FF0C7
:10173000004900E03D440020ADF8020012AB4FF03C
:10174000FF3229460DF1020001F0AFF80746012FE4
:1017500004DA2878471EBF41FF43FF0FBDF802009F
:1017600025280CBFA7F1010BBB46BBF1010F0EDB17
:101770002C4614F8011B0498D0470028049000F070
:10178000F3800D98401CBBF1010B0D90F1D1BDF819
:101790000200252807D100200790089009900A90A0
:1017A0000B900C9005E00028C4D10D98E2E240F0C7
:1017B000010015F8011F2029F9D023290DD02B296C
:1017C00004D02D2906D030290AD00CE040F00200C8
:1017D00080B2EEE740F00400FAE740F00800F7E7D7
:1017E00040F01000F4E72A290ED13168316051F839
:1017F000042B3160002A0F9204D5514240F00400BE
:101800000F9180B26D1C11E000210F9109E00F993A
:10181000494505D001EB810302EB430130390F91BB
:101820006D1C2A78A2F130010A29F0D329782E29DB
:1018300003D04FF0FF310E911DE015F8011F2A294A
:1018400007D1316831606D1C51F8042B31600E9264
:1018500011E000210E9109E00E99494505D001EBF8
:10186000810302EB430130390E916D1C2A78A2F1FD
:1018700030010A29F0D3ADF840000FF2F04029788A
:1018800001F024F808B115F8010B8DF842009DF81D
:101890004200682802BF29786829622005D06C2898
:1018A00004BF28786C2803D171208DF842006D1C8C
:1018B00014A8069015F8017BB7F125002AD01C3832
:1018C00000F0DB80001F022840F2D780133800F0C0
:1018D000FE80093800F0D180801E00F06B81401E30
:1018E00000F04181401E022840F2C780001F00F036
:1018F0003A81401F00F09280401E00F0E880401EB8
:1019000035D0C01E0BD0801E00F0E180C01E00F05C
:10191000DE8072E125208DF85000012077E19DF8EE
:1019200042006C283068306014D050F8044B3060AE
:1019300005940E9F002F04D5204600F0D3FF0746E4
:1019400006E03A460021204600F0E8FF00B1071B00
:1019500008975DE150F8042B306002A9504600F072
:1019600044FA002840F154814FF0FF3002E2316820
:101970003160002251F8040B31600021CDE90201F1
:1019800014A80590DDE902019142069F08BF90422C
:101990004FF03C0C01D10E9AC2B100F00F0330336E
:1019A000DBB23A2BA8BF2733ACF101020009BB54CC
:1019B000944640EA017009090022914208BF904212
:1019C00004D0059A07EB0C039A42E6D307EB0C0010
:1019D0000590CCF13C010E980891814209DA401A39
:1019E0000A904FF6EF71BDF840000840ADF8400096
:1019F0000EE1002840F10C819DF8400000F0140039
:101A0000102840F005810F98079A801A0A9A801AC8
:101A1000401A0128C0F2FC800A90F9E09DF84200CB
:101A200062281AD0682806D06A280CD06C281CD0EE
:101A3000712808D019E03068306050F8041B30601D
:101A40000D980880E4E03068306050F8042B306076
:101A50000D98C117C2E90001DAE03068306050F833
:101A6000041B30600D980870D2E03068306050F888
:101A7000041B30600D980860CAE03068C01D6FF02C
:101A8000070101EA00023260D2E900010832326047
:101A9000CDE90201002902D507982D210AE0BDF801
:101AA0004000810702D507982B2103E0C00705D528
:101AB0000798202108F80010401C079014A80799E7
:101AC00008440590394602A800F09AFBA0E09DF872
:101AD00042006C280FD0712818BF6A280BD13068DB
:101AE000C01D6FF0070101EA00023260D2E9000177
:101AF0000832326005E03168316051F8040B316022
:101B00000021CDE902019DF84200682803D1DDE9FA
:101B1000020180B20BE0622803D1DDE90201C0B20C
:101B200005E0742818BF7A2804D1DDE902010021FC
:101B3000CDE902019DF84000000732D5DDE902231E
:101B40000020834208BF82422BD047F02000782833
:101B500027D10798302108F80010401C411C07913C
:101B600008F800701DE09DF84200314600F005F9CC
:101B7000CDE90201DDE9022300218B4202DA079858
:101B80002D210AE0BDF84000810702D507982B21DE
:101B900003E0C00705D50798202108F80010401C75
:101BA000079014A8079908440590394602A800F048
:101BB000A2FA2DE09DF842006C2809D00120079080
:101BC0003068306050F8041B30608DF850101FE012
:101BD0003068306001AA50F8041B3060ADF8041082
:101BE0000020ADF8060002A94FF0FF300E905046DD
:101BF00000F0FBF800280BD5B6E625208DF8500044
:101C000001200790380003D088F801700220079067
:101C10000F980799401A0A99401A0899401A0B9987
:101C2000401A0999401A0C99471A9DF8400040073C
:101C300010D42020012F8DF800000BDB3C4601233F
:101C40006A4602A9504600F00BFE00287FF48CAED5
:101C5000641EF4D1DDF81CB0BBF1000F14AC0DD044
:101C600014F8011B0498D047002804903FF47CAE80
:101C70000D98401CBBF1010B0D90F1D130208DF877
:101C800000000A9C012C0ADB01236A4602A9504687
:101C900000F0E6FD00287FF467AE641EF4D1DDF8A5
:101CA00020B0059CBBF1000F0DD014F8011B049867
:101CB000D047002804903FF457AE0D98401CBBF16C
:101CC000010B0D90F1D130208DF800000B9C012C00
:101CD0000ADB01236A4602A9504600F0C1FD002834
:101CE0007FF442AE641EF4D105980899DDF824B063
:101CF0004418BBF1000F0DD014F8011B0498D04715
:101D0000002804903FF430AE0D98401CBBF1010B4D
:101D10000D90F1D130208DF800000C9C012C0ADBD5
:101D200001236A4602A9504600F09AFD00287FF47C
:101D30001BAE641EF4D19DF8400040077FF5FBAC5C
:101D40002020012F8DF80000FFF6F5AC01236A4634
:101D500002A9504600F084FD00287FF405AE7F1EE6
:101D6000F4D1E8E40000000000000000686A6C7430
:101D70007A4C000025B0BDE8F08F622827D0682893
:101D80001ED06A2808D06C2828D0712804D0742866
:101D900024D07A280DD021E00868C01D6FF007021A
:101DA00010400860D0E9002308300860194610464A
:101DB00070470A680A6052F8040B0A6000217047F5
:101DC0000A680A6052F8040B0A6000B20BE00A6865
:101DD0000A6052F8040B0A6040B204E00A680A6024
:101DE00052F8040B0A60C11770472DE9F44F0D46F5
:101DF00094B0D5F830A0BAF1000F804648BF6FF01C
:101E0000004A00F0B7FD696B401801900FF6802082
:101E1000D0E90023CDE9022395F83800400702D429
:101E20000198412805D240200DF1100901900026AB
:101E300009E0FFF757F85FEA0009F8D14FF0FF30EB
:101E400056E1AAEB040ABAF1010FC0F2CE80149851
:101E5000018802AA0DF1010000F091FD002804465E
:101E600000F1DE801498008810B9641E00F1D8805B
:101E7000A245C0F2BA80686901992218914280F0A7
:101E8000A2806E634042296A401AA969401A696AB1
:101E9000401AE969401AA96A461A95F838004007BD
:101EA00010D42020012E8DF800000BDB37460123D3
:101EB0006A462946404600F0D3FC002840F0B08036
:101EC0007F1EF4D1D5F814B0BBF1000F4F460DD0F2
:101ED00017F8011BA868C0470028A86000F0A08080
:101EE000E86A401CBBF1010BE862F1D130208DF8AB
:101EF00000002F6A012F0ADB01236A46294640466B
:101F000000F0AEFC002840F08B807F1EF4D1D5F8A5
:101F100018B0EF68BBF1000F0CD017F8011BA868D0
:101F2000C0470028A8607BD0E86A401CBBF1010BC9
:101F3000E862F2D130208DF800006F6A012F09DBD2
:101F400001236A462946404600F08AFC002867D1F2
:101F50007F1EF5D1E868A969D5F81CB04718BBF118
:101F6000000F0CD017F8011BA868C0470028A86014
:101F700056D0E86A401CBBF1010BE862F2D1302078
:101F80008DF80000AF6A012F09DB01236A4629465C
:101F9000404600F065FC002842D17F1EF5D195F83F
:101FA000380040070DD52020012E8DF8000008DBF9
:101FB00001236A462946404600F052FC80BB761E4B
:101FC000F6D100266E61224668690DF10101484490
:101FD00000F0E2FC6869201868611498801C149075
:101FE000801E008800287FF42CAF686B6969401A56
:101FF000296A401AA969401A696A401AE969401AAF
:10200000A96AA0EB010A95F83800400710D4BAF18C
:10201000010F0DDB5446A8682021C047A86010B905
:102020004FF0FF365DE0E86A401C641EE862F2D1C2
:102030006B694A462946404600F012FC0028EFD161
:102040002C6A012C0ADBA8683021C0470028A86050
:10205000E6D0E86A401C641EE862F4D1AB69EA6825
:102060002946404600F0FCFB0028D9D16C6A012CBF
:102070000ADBA8683021C0470028A860D0D0E86AF1
:10208000401C641EE862F4D1E868A969EB69421853
:102090002946404600F0E4FB0028C1D1AC6A012C7F
:1020A0000ADBA8683021C0470028A860B8D0E86AD9
:1020B000401C641EE862F4D195F8380040070ED544
:1020C000BAF1010F0BDBA8682021C0470028A860E7
:1020D000A6D0E86A401CBAF1010AE862F3D16E6149
:1020E0006E6304A881451CBF4846FFF756F830468A
:1020F00015B0BDE8F08F2DE9F343054608462F697A
:102100006F2808BF082405D041F02001782914BFAA
:102110000A2410243C26D5E90023642818BF692826
:102120009046994606D100218B4203DAD8F1000887
:1021300069EB49090020814508BF80450CD1286B17
:1021400050B9082C38D195F83800000734D5302024
:102150003B2687F83B002FE0701E00900646404665
:1021600049462246E31700F053FC02F13000C0B2AA
:102170003A2803DB9DF8041051390818B855494630
:1021800040462246E31700F043FC80468946002083
:10219000814508BF804503D0E868B9198842DBD380
:1021A000082C09D195F83800000705D5B85D30280E
:1021B00002D0761E3020B855B919E960C6F13C004E
:1021C000296BA861884208DA081A28624FF6EF7175
:1021D000288F08402887BDE8F38300290ED595F89D
:1021E000381001F01401102908D1696B6A69891A45
:1021F0002A6A891A0E1A012EA8BF2E62BDE8F3833F
:102200002DE9F24F04468EB0D4E90001CDE9020178
:1022100004AF9DF8380040F0200BBBF1610F0AD0ED
:10222000206B002848BF062004D408BFBBF1670F0D
:1022300001D1012020636168C1F30A5040F2FF72AE
:1022400090421CD1080304BF2068002809D1032054
:10225000A0619DF8380061381A2835D30FF2446127
:1022600008E00320A0619DF8380061381A2828D3BF
:102270000FF22861E068032200F08EFBC3E1012821
:1022800015DA204600F03BFC012810DB0025002079
:10229000BBF1610F1FD1E16830220A708A1CE26035
:1022A0009DF83820612A0CBF782258220FE062681E
:1022B00040F2FE3161F31E52451A62604FF0FF306A
:1022C000E6E70FF2D451D5E70FF2D451D2E74A70C6
:1022D0006169891C616110B9002600258AE1BBF1A2
:1022E000610F40F09880206BD4E900AB00284CBF10
:1022F0002126461CDDE902010022002300F022FC19
:1023000036B23ABF8BF00040CDE902A0CDE902AB76
:1023100006F101082D1FB8F1010F8DF810200DF105
:10232000110736DBDDE902010022002300F022FC68
:102330002FD21C2102A800F035FCDDE9020100F0DB
:10234000BBFCA8F10708B8F1010F814609DB00F0DA
:10235000DFFC02460B46DDE9020100F0F1FCCDE9AD
:102360000201F81D072105E009F00F0200F8012D18
:102370004FEA2919B9F1010F01DB491EF4D5491EB5
:102380005CBF002200F8012DF9D5C71DB8F1010F7F
:10239000C8DA0DF11100391AB142B8BF0E4636B293
:1023A00030000DF111072FD4884206DA04A9014448
:1023B00049780829A8BF0F2100DA002104AA0244A5
:1023C00000E0761E12F80139401E8B42F9D00F2929
:1023D00004D104A901444A78521C4A70002802D54D
:1023E00004AF761C2D1D36B2701E0DD439180A7834
:1023F0003032D2B23A2A03DB9DF838303A3B9A1891
:10240000401E01F80129F2D5206B002840F1F2802E
:10241000701E2063EEE0DDE902010022002300F0DF
:1024200091FB3CBF81F00041CDE902012DB247F2A2
:10243000975068434D49DFF8389180FB01214D13D7
:1024400005EBD5752DB2C5F1070ABAF1010F984613
:102450001CDBDDE902675FEACA7007D542464B46DE
:102460003046394600F02CFD06460F4640464946A8
:1024700042464B464FEA6A0A00F022FDBAF1000FCD
:1024800080468946E7D1CDE9026724E0CAF1000A17
:102490000026384F14E05FEACA7007D542464B4623
:1024A0003046394600F00CFD06460F464046494688
:1024B00042464B4600F004FD4FEA6A0A80468946D0
:1024C000BAF1000FE7D1DDE9020132463B4600F0E8
:1024D000C9FDCDE90201BBF1660F216BDFF89890D1
:1024E0000CBF05F10A0006204618142EA8BF1326BB
:1024F00030208DF810000DF11107012E40DBDDE9D1
:10250000020100F0EFFB07F1080104221B4FA0FBC2
:102510000773DB0803EB8307A0EB4700303001F8BB
:10252000010C164FA3FB0770C00800EB8007A3EB5C
:1025300047033033521E01F8023DE7D1083E012E19
:1025400001F10807D9DBDDE9020100F0CBFB00F067
:10255000E9FB02460B46DDE9020100F0F1FB002237
:102560004B4600F0ADFCCDE90201C8E789B5F8148F
:10257000000024400000F03F84D79741CDCCCCCC64
:102580000DF11100381A0DF1110702E0401E6D1E09
:102590007F1C39783029F9D0BBF1660F08BF691C60
:1025A00004D0BBF1650F0CBF01210021226B8E18F6
:1025B00036B2B042B8BF064636B231001AD48142B4
:1025C00004DA785C3528A8BF392000DA30207A1880
:1025D000521E00E0761E12F80139491E8342F9D0DE
:1025E000392802D1785C401C7854002902D57F1E1E
:1025F000761C6D1C2DB29DF83810009533B23A460A
:10260000204600F003F80FB0BDE8F08F2DE9F04749
:1026100086B006468A4690461D4600F06CFE012DA7
:10262000406A376B90F8009002DA01250FF27828A3
:102630004AF02000BDF93840662808BF641C12D05B
:10264000672878D114F1040F7BDBBC4279DA96F865
:102650003800641C000702D4BD42B8BF2F4624B224
:102660003F1B48BF002724B2F068B169012C23DA70
:102670004A1C30234354012F03DA96F83800000730
:1026800003D5F06800F80290521CE742B8BF7C42C4
:1026900024B260427062E719AF42B261B8BF3D46F2
:1026A000F068B3692DB2F5612A464146184400F03E
:1026B00073F9781BB062BCE022469542084416DAF2
:1026C0002A46414600F068F9B1696918601B012F7C
:1026D000B161706203DA96F83800000705D5F0683A
:1026E00000F80190F069401CF061B762A1E041463A
:1026F00000F052F9B06920182D1B012F03DA96F86B
:102700003810090703D5F16801F80090401CB0614A
:102710002DB2AF42B8BF3D46F068B3692DB22A462C
:1027200008EB0401184400F037F9B0692818B061CB
:10273000781B70627DE0BAF1610F14D14FF0700A1E
:1027400016E0BD4204DA96F83810090758BF2F4644
:102750007F1E48BF0027BAF1670F14BF4FF0450A2C
:102760004FF0650A04E0BAF1410F08BF4FF0500A7C
:10277000B169F368481CB061012F18F8012B5A5455
:1027800003DA96F83810090717D5F168431CB361CE
:1027900001F80090012F10DB6D1E2DB2AF42B8BFC3
:1027A0003D46F0682DB22A464146184400F0F4F840
:1027B000B0692818B061781B7062F068B169014493
:1027C000200081F800A004D42B20487001F10208F9
:1027D00004E02D224A7001F102086442002502AF94
:1027E00008E00A22684600F09FFD019807F8010BF7
:1027F0006D1C009C21B20129F3DA022D06DA4AF0A1
:102800002000652804BF302008F8010B4DB93020A6
:1028100008F8010B07E06D1E02A8405D303008F893
:10282000010B012DF7DAF068B1690844A8EB00004C
:10283000F06196F8380000F0140010280DD170698E
:10284000B1690818716A0818F1690818B16A08189E
:10285000716B8842BCBF081A306206B0BDE8F087D1
:10286000F8B504460D4616461F46002077B116F807
:10287000011BA868A047A86030B1E86A401CE86264
:1028800000207F1EF3D1F2BD4FF0FF30F2BD0000FB
:1028900000000000000000006E616E004E414E001E
:1028A000696E6600494E46003000F8B504460D4694
:1028B00016461F4600F04AFD3B4632462946204652
:1028C00001B0BDE8F04000F058BD00000278C9B288
:1028D0008A421AB11CBF10F8012FF9E718BF002077
:1028E0007047000000F10103810704D010F8011BBC
:1028F00089B18107FAD10268B2F10131914311F037
:10290000803F04BF50F8042FF6E710F8011B11B107
:1029100010F8011BFBE7C01A70470000C9B283071B
:1029200006D0521E22D310F8013B9942F7D11FE086
:10293000083A13D302F1040241EA012141EA0141BC
:1029400050F8043B121F21BF4B40A3F1013C2CEA7D
:10295000030C1CF0803FF3D0C9B2001F083210F8FE
:10296000013B521E28BF91EA030FF8D818BF01207F
:10297000401E704780B500F0E9FC012002BD70B533
:1029800004460D46164600F0E1FC32462946204634
:10299000BDE8704000F0E4BC62B38B0708D0521E63
:1029A00011F8013B00F8013B00F024808B07F6D1C1
:1029B000830740F0208000BF103A07D330B4B1E85D
:1029C0003810103AA0E83810F9D230BC530724BFB1
:1029D000B1E80810A0E8081044BF51F8043B40F8E3
:1029E000043BD20724BF31F8022B20F8022B44BF4E
:1029F0000B7803707047083A07D3B1E80810083A1B
:102A000040F8043B40F804CBF7D25307E4E700005A
:102A10001B4213D1094236D12AB18446B0FBF2F0F1
:102A200002FB10C2704700F0CBBCFCD30022002395
:102A300070470B000200002100207047904271EBAC
:102A4000030CF6D370B5B1FA81F4B3FA83F52C1BFD
:102A5000A340C4F1200532FA05F63343A2405FF0EB
:102A60000046E64002E05B085FEA3202841A71EB3E
:102A7000030524BF204629467641F4D302000B000B
:102A80003000002170BD012ACFD970B5140C20D0C0
:102A9000B1FA81F4B2FA82F5C4F120046419B4F1F8
:102AA0002006D6D3B2405FF00044F440002502E097
:102AB00052085FEA3303C61A71EB020E24BF304698
:102AC000714664416D41F3D302000B0020002900E0
:102AD00070BD0C46B1FBF2F102FB11452D0445EA35
:102AE0001045B5FBF2F402FB145580B240EA0545EF
:102AF000B5FBF2F002FB105240EA044070BD30B466
:102B0000436803F000420121C3F313034360002B29
:102B100004BF0368002B08D10DE00368DD0F45EA10
:102B2000440444605B000360491E4468E302F4D53A
:102B3000C4F31303436043681A434260084630BC41
:102B4000704700004FF4001C1CEB410F94BF1CEBBE
:102B5000430F09E041EA030C50EA4C0C52EA0C0C1A
:102B600003D2994208BF9042704714BF8B42824201
:102B7000704700004FF4001C1CEB410F94BF1CEB8E
:102B8000430F09E041EA030C50EA4C0C52EA0C0CEA
:102B900003D28B4208BF8242704714BF99429042D1
:102BA0007047000070B504460D466068C0F30A50D7
:102BB00040F2FF71884207D16068000304BF2068BB
:102BC000002817D0022070BD20B92046FFF797FFDC
:102BD000012866DA012D0FDB40F2FF71091A8D42E0
:102BE0000AD3606800284CBF9FED2F0B9FED300B80
:102BF00084ED000B012070BD4142A942616806DAF4
:102C00006FF31E51401941EA0050606040E0401EE1
:102C100063684519012205F1350062F31F53352819
:102C200001F00041636003D361600020206070BD4B
:102C3000002015F11F0F04DA2068236000222035E0
:102C400062606A4212D0401E25688041C2F12003B2
:102C5000C0439D4045EAD07025686668D54006FAB5
:102C600003F32B4323606368D340636062680A43C5
:102C7000B0F1004F626003D80DD12078C0070AD5AB
:102C80002068401C2060206828B96068401C606093
:102C90004FF0FF3070BD6068884204BF2068002894
:102CA000F6D1002070BD00BF000000000000F0FF62
:102CB000000000000000F07FF446400D40EAC12013
:102CC000490006D200F014F8004248BF6FF00040FF
:102CD000604700F00DF84FF0004188428CBF084675
:102CE00040426047400D40EAC120490080F00D801D
:102CF00040F00040490DA1F58061491C05D4D1F197
:102D00001F0154BFC840C01770474FF00000704704
:102D1000010040F10980F446404200F005F851F00E
:102D200000416047010000BF09D0B0FA80F188403F
:102D3000C91CC1F58461090501EBD021400570472C
:102D4000F0B44FF0004591EA030F44BF6B4000F030
:102D500043BB00BF841A71EB030604D26E40001B14
:102D6000B141121973414FF4001C1CEB410F34BFE9
:102D70007CEB430684E00C0DA4EB1356362E7DDC71
:102D8000012E43DC45EAC32343EA525312BFD20269
:102D900092025B08240545EAC12141EA5051D2EB79
:102DA000C020994125D407D1B0FA80F610FA06F177
:102DB00064D00020203608E0B1FA81F6B140C6F1B7
:102DC000200220FA02F21143B0404FEAF474B4EB4F
:102DD000465434F001064FEA74040AD8D6F50016BA
:102DE000760D04F00044F04061FA06F25040F140E4
:102DF0004840C00A40EA415021F0004128BF5FEA44
:102E0000500550F1000044EBD12137E045EAC323DF
:102E1000DB0A45EAC121C90AB6F120050EDD42EA06
:102E20000242120CC5F1200603FA06F6EB4042EA14
:102E300006056D42984161F100010DE062FA06F568
:102E4000F240554063FA06FC82EA0C02F3405A4015
:102E50006D42904161EB030111F4801F05D1641EA6
:102E6000620502D06D004041494121F480114308C0
:102E700075F1004350F1000041EB0451F0BC704784
:102E80001CEB410F15D223F0004352EA43060BD04E
:102E90004FEA4C0CBCEB410F04D80C0D661E342ECF
:102EA000B7DDEBE7801A994150EA410608BF0021DF
:102EB000E4E708BF1CEB430F28BF6FF00001DDE71C
:102EC000B0B581EA030C0CF0004C40F2FF7515EA36
:102ED00011541DBF15EA1357AC42AF4239E0E41953
:102EE00023EA455343F48013C90241F0004141EA0B
:102EF000505EC7021100A7FB020200284FF000003D
:102F0000EEFB01204FF00001E3FB072118BF42F068
:102F10000102401800214941E3FB0E01A4F5806441
:102F20000F0302D252004041494154F101046CDDCB
:102F3000470872F1004250F1000051EB0451A1F535
:102F400080115CBF41EA0C01B0BD4CEA0551002084
:102F5000B0BD05EA1357AC4214BFAF4241E050EA9E
:102F6000410E1CBF52EA430E02E061460020B0BD94
:102F700024423C441BD15FEA070EF6D0090302BF8E
:102F800001460020AEF1140EB1FA81F7AEEB070452
:102F900001FA07FE0C37C7F1200100FA07F7C84015
:102FA0004EEA000E23EA455343F48013A2E733F0C0
:102FB0000043B3FA83F704BFB2FA82FE77440B3FB3
:102FC000E41BB7F1200E2FBF02FA0EF3BB40C7F18E
:102FD000200E22FA0EFE38BF43EA0E03BA40641CEC
:102FE00082E750EA410E14BF52EA430E6FF000012F
:102FF0004FF4001717EB430F8ABF194617EB410F29
:10300000B5E74CEA05510020B0BDD4F10104B4F19C
:1030100020070FDAC4F12007520828BF42F001024E
:1030200010FA07F501FA07F7E1BF2A43E0403843F9
:10303000E1400FE0352C98DCC7F1200452EA400251
:1030400020FA07F218BF42F0010231FA07F0A1405E
:103050000A43002172F1004250F1000051EB0C01D3
:10306000B0BD00002DE9F04140F2FF7581EA030C8C
:103070000CF0004C15EA11541DBF15EA1357AC4271
:10308000AF42E9E0BC41C1F31301C3F31303801A5B
:10309000994143F4801304D2641E400049418018D2
:1030A0005941C90241EA5051B1FBF3F603FB161135
:1030B000A2FB0675D7EBC020A94102D2761E80186C
:1030C0005941C90241EA5051B1FBF3FE03FB1E1105
:1030D000A2FB0E75D7EBC020A94103D2AEF1010EC1
:1030E00080185941890241EA9051760546EA8E2EB0
:1030F000B1FBF3F603FB1611A2FB0675D7EB80209C
:10310000A94102D2761E80185941C90241EA5051A4
:103110004EEA060EB1FBF3F603FB1611A2FB067591
:10312000D7EBC020A94102D2761E80185941C902AE
:1031300041EA5051B1FBF3F703FB1711A2FB07352E
:10314000D3EBC020A94167F100070CBF004247F054
:10315000010766F3D5274FEA1E31B80814F58064DD
:1031600014DDBD0775F1004250EB0E5051EB0451D8
:1031700011F5801F5CBF41EA0C01BDE8F0814CF005
:103180007F6141F0E0410020BDE8F081BD076D089E
:1031900040EA0E5041F48011D4F10104B4F120064C
:1031A0000ADAC4F120060200E04001FA06F3E14029
:1031B0001843B24015430EE0342C14DCC6F1200451
:1031C00045EA40056D0820FA06F2154321FA06F09B
:1031D000A1400D43002175F1004250F1000051EB78
:1031E0000C01BDE8F08100205FEA0C01BDE8F08130
:1031F000CFB992185B41B3FA83F704BFB2FA82F6F3
:10320000BF190B3FB7F120062FBF02FA06F3BB40F0
:10321000C7F1200622FA06F638BF3343BA401CB184
:10322000E419641E2FE77F4231F00041B1FA81F4C6
:1032300004BFB0FA80F6A4190B3CB4F120062FBFEE
:1032400000FA06F1A140C4F1200620FA06F638BFC4
:103250003143A0403C1B16E7AC421ABF05EA1357A6
:10326000AF4214E050EA41061CBF52EA4306BFE7F2
:1032700050EA4107304661461CBF41EA0551BDE8AE
:10328000F08152EA430C08BFC143BDE8F081002041
:103290004FF4001616EB410F98BF16EB430F08BF13
:1032A00016EB410F24BFC14305E016EB430F0CBFE3
:1032B00061464CEA0551BDE8F081000080B5134835
:1032C00000F0F4F80FF24C020FF244010160426288
:1032D00041600FF24402826381600FF24402C160D8
:1032E0000161416181618162C16201634163C263C5
:1032F0000164416401BD10B5044800F0D7F80446EC
:10330000206808B9FFF7DAFF204610BDAC000020A6
:10331000000000002E00000066616C736500000074
:10332000747275650000000091FBF2F303FB12114B
:10333000C0E900317047000010B50446DFF81C00FA
:1033400000F0B4F800EB8400006810BD80B5DFF831
:103350000C0000F0ABF8806902BD000040010020C5
:1033600030B430B90FF24800D0E90045C2E9004559
:103370001BE00170012030BC704730B431B90FF24E
:103380003800D0E90045C3E900450EE01AB930BC69
:103390006FF00100704708B10A7802800978481E72
:1033A000804130BCC043C00F7047002030BC704724
:1033B000000000000000000000000000000000000D
:1033C00070470000F0B44FF0004591EA030C44BF91
:1033D0006B40FFF7BFBC00BF841A71EB030603D23A
:1033E000001BB141121973414FF4001C1CEB410F3B
:1033F00034BF7CEB430443E00C0DA4EB1356352E95
:1034000050DC45EAC323DB0A45EAC121C912B6F103
:1034100020050DDD63FA05F6EB4086EA030512424E
:1034200018BF45F00105C01851F100010CD213E09E
:1034300062FA06F5F2405540F3415A40B340F3407A
:103440005A408018594107D349085FEA30005FEAC3
:10345000350528BF45F0010501F58011420875F1D9
:10346000004250F1000041EB0451F0BC4FF4001C4D
:103470001CEB410F38BF70470020090D090570474C
:103480001CEB410F10D252EA43060BD0BCEB410FAC
:1034900005D80C0DAB43661E342EB5DD02E0AB4300
:1034A00080185941F0BC7047F0BC7047704700006D
:1034B0002DE9F04782B082460E46174698465024C2
:1034C00010B900F081F8FEE7DDF82890B9F1070F98
:1034D00002D300F079F8FEE70C99384600F0F8FACC
:1034E00005006AD0286B0D9B00974A4600EB8700C9
:1034F0003146001FC008C400284600F0A6FA424624
:103500005146204600F040FB28600B9800B1056052
:1035100000F09CFBDFF834661427F06CDFF830868F
:10352000401CF064B06A28BBB562F06C012828D159
:10353000002407FB04F0641C404400F011FC072C3D
:10354000F7D306F1740006F1880400F009FC204668
:1035500000F006FC304600F003FC06F1140000F019
:10356000FFFB06F1380000F0FBFB06F17400F0628F
:10357000346306E0B06D20B9B06AC06A814528BFE7
:10358000B562B06E0121401CB0666864706DEA6A75
:10359000914008437065E86A291D012500F010F884
:1035A00000F071FBB06D28B1B06AC06A484501D225
:1035B00000F080F82846BDE8F6874FF0FF35F9E7C0
:1035C0007843404400F0DCBB72B684F31188BFF34B
:1035D0004F8FBFF36F8F62B6704738B5050014D0B8
:1035E000DFF86845206F10B100F0ABF8FEE700F09F
:1035F00019F9206D2D1800F0B8FA00F0ABFA284642
:1036000000F04DFA00F014F908B900F053F831BD9C
:1036100038B500F029F800F022F800F02AF818B1C7
:1036200005F1180000F0D1FB291D04F1380000F06D
:10363000A7FB00F028FBA06A8542A06D0CD100B169
:1036400030E0A06BE16C88421CBFBDE8314000F067
:1036500097B90020A06231BD00B11BE031BD05B9B2
:10366000A56A281D00F0B1BB0546DFF8084500F04B
:10367000EDBA68B9E86A1422DFF8FC1442438958AD
:1036800031B9616D012202FA00F021EA00006065A3
:10369000A86A704700F0DAFA00F036FABDE8314067
:1036A00000F0F1BA206F10B100F04BF8FEE700F027
:1036B00001F831BD4FF08050DFF8C0140860BFF34F
:1036C0004F8FBFF36F8F704710B5002110B900F016
:1036D00038F8FEE74369DFF89C2402F13804A3427E
:1036E00004D1806A904201D000B90121084610BD82
:1036F00038B5040002D100F024F8FEE7DFF8745476
:10370000A86A844217D000F0A1FA2046FFF7DCFF38
:1037100001280FD100F05FF9E06A696D00F04BF805
:103720006965211D104400F02BFB00F005F801D362
:10373000FFF7C0FFB2E731BDE06AA96AC96A8842F3
:10374000704772B6502080F31188BFF34F8FBFF3DC
:103750006F8F62B67047F8B504460025502714B93C
:1037600000F031F8FEE700F0C3FAEFF3118600F045
:103770002AF82046FFF7A8FF012818D1DFF8F473D4
:10378000386F78B9E06AB96AC96A884228BF0125EA
:1037900000F021F9E06A796D00F00DF87965211DDE
:1037A000104402E004F11801384600F0E9FA86F30B
:1037B00011882846F2BD0122142382405843114348
:1037C000DFF8B423704772B687F31188BFF34F8FC9
:1037D000BFF36F8F62B6704700B585B000200390CD
:1037E00000230290802201900FF2943100900FF29A
:1037F0000120FFF75DFE502101280ED100F09DF958
:10380000DFF87003012181650021016505B05DF8D5
:1038100004EB00F0E2B905B000BD0028FBD100F0D8
:103820008CF9FEE7DFF84C03016F491C0167704714
:1038300070B5DFF818530024286F10B9FFF781FF27
:10384000FEE700F003FA286F401E2867286F002863
:1038500038D1E86CD8B935E0E868C66806F11800D8
:1038600000F0B3FA301D00F0B0FA686DF26A00F0B3
:10387000B5F8F26ADFF80003311D5A43104400F036
:103880007FFAF06AFFF759FF24BF012028662868F5
:103890000028E1D1E86D40B90AE000F014F808B161
:1038A00001202866E86D401EE865E86D0028F4D127
:1038B000286E012806D14FF08050DFF8C012012495
:1038C000FFF7FCFE90E02DE9F843DFF8805200247A
:1038D000286F00284BD1286D401C2865D5F85090E2
:1038E000B9F1000F0ED1E86A006810B1FFF729FFA7
:1038F000FEE7E86A296BE9622863686E401C686627
:1039000000F002F9E86E1427DFF86C82814525D3B8
:1039100017E0301D00F059FAB06A18B106F118002E
:1039200000F053FA686DF26A01219140084368651E
:10393000F06A311DFFF744FEF06AFFF7FEFE28BF74
:103940000124E86A006810B94FF0FF3005E0E86A2A
:10395000C068C66870688145DBD2E866A86AC06A3C
:10396000784358F80000022804D3012402E0E86DEF
:10397000401CE865286E00B101242046BDE8F283B2
:10398000DFF8C801016F11B10121016670470166BE
:10399000416D1422B1FA81F1C1F11F015143DFF8E9
:1039A000D82153584BB972B6502080F31188BFF319
:1039B0004F8FBFF36F8F62B6FEE7114401F108032A
:1039C0004A6852684A609A4204BF52684A6049682D
:1039D000C96881627047201D00F0F7B901211423E6
:1039E000914008436865704700F04DF9204670BD6E
:1039F00070B5DFF85C41DFF854511DE0FFF712FFAE
:103A00006869461EB641F60FFFF712FFA6B900F02F
:103A10001DF9286AC668301D00F0D7F9E86C401E11
:103A2000E864686B401E686300F02DF9306B00F0AD
:103A300068FA304600F065FA686B0028DED120682D
:103A40000228F9D3FFF736FEF6E7F8B50446154627
:103A500000200A5C231883F834200A5C12B1401C51
:103A60001028F6D30020072D84F8430004F1100637
:103A700004F14C0728BF0625F5617860201D3D60E4
:103A800000F07BF904F1180000F077F9C5F10700A8
:103A90003460B06000207461B8603873F1BD38B52F
:103AA0000446DFF8D050A86A4460286D8442A86AB2
:103AB00005D2011D286BBDE8344000F06DB9011D31
:103AC000E86A00F069F9E86E844238BFEC6631BDFF
:103AD00070B50C4685001CB9284600F089F90446EB
:103AE0007CB15C2000F084F9060006D03463A52286
:103AF0002946204600F05CFA04E0204600F001FA76
:103B000000E00026304670BD1048C16A096811B94E
:103B10004FF0FF3103E0C16AC968C9684968C166EE
:103B20007047DFF85000816D09B901207047006FC0
:103B300000280CBF02200020704772B681F3118864
:103B4000BFF34F8FBFF36F8F62B670471000002036
:103B5000A045002040B9A06A616D0122C06A02FA46
:103B600000F021EA000060657047A06A001D00F0C7
:103B70002CB9000010000020A045002004ED00E05A
:103B800049444C450000000010B5A0F120034FF05F
:103B9000807499610FF2150159616FF00201DC61C7
:103BA0001A6040F8241D203810BD000063495020E1
:103BB000496811F1010F72B607D080F31188BFF385
:103BC0004F8FBFF36F8F62B6FEE780F31188BFF3AC
:103BD0004F8FBFF36F8F62B6FEE71CB55848574C46
:103BE00001780191FF21017001788DF800109DF896
:103BF000001001F050012170072105E09DF8002020
:103C0000491E52008DF800209DF800201206F5D4C0
:103C1000090201F4E061A16001990170494801685D
:103C200041F470010160016841F07041016000F0F1
:103C300053F80020606000F021FA4348016841F029
:103C40004041016000F00EFA002016BD72B650200F
:103C500080F31188BFF34F8FBFF36F8F62B6374980
:103C60004A68521C012A4A600CD138490968090681
:103C700008D072B680F31188BFF34F8FBFF36F8FF8
:103C800062B6FEE770472D48416849B972B65020C8
:103C900080F31188BFF34F8FBFF36F8F62B6FEE7DB
:103CA000491E416004BF002080F31188704780B531
:103CB00072B6502080F31188BFF34F8FBFF36F8F20
:103CC00062B6FFF700FE18B14FF080501F49086040
:103CD000002080F3118801BD1D494FF47A720968F4
:103CE0001C48B1FBF2F1491E416007210160704799
:103CF000EFF3058050211028104A0DD3164B185CA5
:103D00001378984208D272B681F31188BFF34F8FAF
:103D1000BFF36F8F62B6FEE79068104A126802F434
:103D2000E062904208D272B681F31188BFF34F8FE0
:103D3000BFF36F8F62B6FEE77047000000000020FF
:103D400000E400E020ED00E034EF00E004ED00E0EE
:103D50000C00002010E000E0F0E300E00CED00E0DB
:103D600000F1080141604FF0FF31816000F108016E
:103D7000C16001610021016070470021016170474D
:103D800042684A6093688B609368596091600861EB
:103D90000168491C0160704730B50A6812F1010FD3
:103DA00008BF036907D000F1080300E023465C6800
:103DB0002568AA42FAD25A684A6091608B605960BD
:103DC00008610168491C016030BD4368016982686F
:103DD0009A60836842685A604A68824204BF826877
:103DE0004A60002202610868401E086070470000B7
:103DF0002DE9F84304460025FFF714FD6B4FA94653
:103E0000B86808BB07F1180313F0070307F118029D
:103E10004FF47051104605D0D01DC008C000C0F549
:103E20007051511809180839C908C90038600A1AB0
:103E30007D60B9604D600D6042600160406838612E
:103E4000F8604FF00040786178694FF05008044204
:103E500043D1002C41D0083414F0070F1FBF04F1E8
:103E6000080004F00701441A14F0070F00F03EF8B0
:103E7000002C32D0F868A0422FD338463E6801E0CB
:103E800030460E467168A14202D231680029F7D14E
:103E9000B9688E4221D0016801F1080531680160DE
:103EA0007068011B112908D3301910F0070200F0C7
:103EB0001DF84160746000F054F8F8687168401AA9
:103EC0003969F860884238BF386170687969084399
:103ED0007060C6F8009005F00709FFF7A9FCB9F17A
:103EE000000F00F003F82846BDE8F28308D072B650
:103EF00088F31188BFF34F8FBFF36F8F62B6FEE771
:103F0000704738B5040022D0284D54F8041C686965
:103F10005022014202D100F01BF8FEE754F8083CA1
:103F200013B100F015F8FEE721EA000044F8040C94
:103F3000FFF778FCE86854F8041C0818E860A4F15E
:103F4000080000F00EF8BDE83140FFF771BC31BD4C
:103F500072B682F31188BFF34F8FBFF36F8F62B6D3
:103F60007047124930B50A4600E01A46136883428A
:103F7000FBD35368D418844203D14068C018506002
:103F8000104643681468C518A54208D189688C4258
:103F900004D06168C9184160246800E00C46824280
:103FA000046018BF106030BD00000000B0070020A2
:103FB00062F30F2262F31F4200B500BF1300964662
:103FC0009446103928BFA0E80C50FAD85FEA417C2B
:103FD00028BF0CC048BF40F8042BC90728BF20F8F1
:103FE000022B48BF00F8012B00BD0000EFF3098051
:103FF000BFF36F8F254B1A681EF0100F08BF20ED1E
:10400000108A20E9F04F106008B44FF0500072B6EB
:1040100080F31188BFF34F8FBFF36F8F62B6FFF746
:10402000AFFC4FF0000080F3118808BC19680868E5
:10403000B0E8F04F1EF0100F08BFB0EC108A80F30C
:104040000988BFF36F8F7047104B19680868B0E894
:10405000F04F80F30988BFF36F8F4FF0000080F3BB
:10406000118870470A480068006880F3088862B6C3
:1040700061B6BFF34F8FBFF36F8F00DFDFF814001F
:10408000016841F4700101607047000038000020B1
:1040900008ED00E088ED00E038B504000BD004F135
:1040A0006805687818B92870204600F01AFB00F0FF
:1040B0000BF8012801D1012032BD606A08B100F07F
:1040C0001BF800F01CF809E0022068702068016805
:1040D000490849000160204600F024B9816000F0E1
:1040E00004F8BDE8324000F084BA2068016841F06D
:1040F0000101016020467047204600F017BA206891
:104100006FF02A02416821F4904141602068816883
:1041100011407047F8B5044604F15007787E0D460B
:104120001E4601281CBF787E222842D10DB1100006
:1041300001D10120F2BD387E01283AD00120387625
:104140000020F861787E22280CBF32201220787679
:104150003A807A8001E0216888627888010016D070
:10416000401E3346788000228021204600F08CF8E3
:10417000A0B9A068B0F5805F04BF2069002812BF15
:1041800015F8010B35F8020BC0F30800E3E73346DE
:1041900000224021204600F077F808B10320F2BD4C
:1041A000787E32280CBF22200120787600203876D5
:1041B000F2BD0220F2BD2DE9F041044604F158079A
:1041C000787C0D46984601281CBF787C122858D16F
:1041D0000DB1100001D1012054E0387C012850D0ED
:1041E0000120387400207861787C12280CBF3220BE
:1041F00022207874FF213A807A80A068B0F5805F31
:1042000004D1206928B940F2FF100EE028B92069D6
:1042100008B9B9800AE07F2007E0B0F1805F05D1DE
:10422000206900280CBF7F203F20B880BE8804E0B2
:104230002068406A304025F8020B7888010017D0CA
:10424000401E4346788000222021204600F01CF8C2
:1042500008B1032016E0A068B0F5805F04BF2069B4
:104260000028E5D02068406A304005F8010BE4E7FB
:10427000787C32280CBF122001207874002038741A
:1042800000E00220BDE8F0812DE9F84304460E4627
:1042900091461F4600F08CFAB9F1000F804604F1F8
:1042A00068050FD12068C0693040B04235D017F1A1
:1042B000010FF7D0AFB100F07BFAA0EB0800B842D5
:1042C000F0D30EE02068C0693040B04225D117F12C
:1042D000010FF7D02FB100F06BFAA0EB0800B84245
:1042E000F0D320686FF08002016811406FF0200267
:1042F000016020680168114001602068016821F4B4
:10430000807101602068816849084900816001204E
:10431000687000202870032000E00020BDE8F283D0
:104320000000000070B5754E044622681020002180
:10433000002513683340A668334326693343666912
:104340003343E669334313605368E66823F440530C
:10435000334353609368A66923F430633343266A7A
:104360003343674EB2429360664B0AD11B6803F039
:104370000303032B23D8DFE803F06012022102209D
:104380001DE0614EB2420CD11B6813F00C0376D0D5
:10439000042B04D0082BF2D00C2B0FD00FE00420FC
:1043A0000DE05A4EB2421BD11B6813F0300366D0A9
:1043B000102BF4D0202BE2D0302B00D10820E36961
:1043C000B3F5004F74D140B101285AD002285BD018
:1043D00004285BD008285DD062E000F06FFC57E055
:1043E0004B4EB24209D11B6813F0C00347D0402B9B
:1043F000D5D0802BC3D0C02BCFE7464EB2420CD1D4
:104400001B6813F440733AD0B3F5807FC7D0B3F57F
:10441000007FB4D0B3F5407FBFE73F4EB2420ED12C
:104420001B6813F4406308D0B3F5806FB7D0B3F5C1
:10443000006FA4D0B3F5406FAFE70120BFE7374E60
:10444000B2420CD11B6813F4405318D0B3F5805F0F
:10445000A5D0B3F5005F92D0B3F5405F9DE7304E35
:10446000B242ACD11B6813F4404308D0B3F5804F7F
:1044700095D0B3F5004F82D0B3F5404F8DE70020C3
:104480009DE700F023FC03E0264805E000F0E4FB94
:10449000400001E04FF480306168B0FBF1F100E0D2
:1044A00001254FF6F0700840C1F34201084317E0C0
:1044B00040B1012809D002280AD004280AD00828CF
:1044C00011D018E000F0FAFB06E000F0FFFB03E07B
:1044D00015480AE000F0C0FB6168B0FBF1F080B263
:1044E0002168C86008E04FF400406168B0FBF1F05B
:1044F00080B2D06000E00125284670BDF369FFEF6F
:104500000010014090380240004400400048004044
:10451000004C004000500040001401400078004072
:10452000007C00400048E8010024F40090F82410CA
:10453000C90706D501684A68836A22F400321A4323
:104540004A6090F82410890706D501684A68C36A52
:1045500022F480321A434A6090F82410490706D5A5
:1045600001684A68036B22F480221A434A6090F87B
:104570002410090706D501684A68436B22F40042FB
:104580001A434A6090F82410C90606D501688A6863
:10459000836B22F480521A438A6090F824108906B3
:1045A00006D501688A68C36B22F400521A438A60F8
:1045B00090F82410490610D501684A68036C22F46B
:1045C00080121A434A60026CB2F5801F05D14A6816
:1045D000436C22F4C0021A434A6090F82410090682
:1045E00006D501684A68806C22F4002210434860B6
:1045F000704770B5044604F1680500206FF07E46F0
:10460000686020680068000707D5334600224FF431
:1046100000112046FFF738FE58B9206800684007AF
:1046200009D5334600224FF480012046FFF72CFEC7
:1046300008B1032070BD012068700020287070BD93
:1046400080B5032000F091FB002200216FF00B00E9
:1046500000F098FB002200216FF00A0000F092FBAE
:10466000002200216FF0090000F08CFB00220021E5
:104670006FF0030000F086FB00220F214FF0FF30A7
:10468000BDE8084000F07EBB00683A49884200D08F
:10469000704700B587B0002000903748016841F4AA
:1046A00080510160006801A900F4805000900098DA
:1046B000A02000F00CF8314800F0B8FB102001A950
:1046C00000F005F82E4800F0B1FB07B000BD0190E6
:1046D0000220029000200390032004900520059002
:1046E000704700B5274B87B001682448264A994295
:1046F00011D100210091116841F40021116011686D
:1047000001F4002100910099032100F02BF8082109
:10471000059101A922E01D4B994221D10021009170
:10472000516841F010015160516801F01001009191
:1047300000994FF4007100F015F80721059101A9C7
:1047400000F074FB802001A901900220029001205A
:1047500003900320049007200590094800F066FBB1
:1047600007B000BD019102210291012103910321B3
:10477000049170470030014044380240000002407C
:1047800000040240004C004040380240001001404C
:1047900080B5032000F0E9FA002000F041FCFFF7AB
:1047A0004FFF002002BD04480168491C01607047AA
:1047B0000148006870470000D4470020F8B504465F
:1047C000DFF85C552078C0075CD5A86800F00C00C5
:1047D000042805D000F07CF90AD16868400207D5AA
:1047E000286880034ED5606800284BD10120F2BDB7
:1047F00000F069F9286820F48020286000F063F94F
:10480000FFF7D6FF06462868800305D5FFF7D0FFDF
:10481000801B6528F7D34CE100F055F96068B0F5CE
:10482000803F03D1286820F4802005E0B0F5A02F58
:10483000286806D140F480202860286840F4803041
:1048400005E020F480202860286820F4803028606B
:10485000606858B1FFF7ACFF06462868800311D4A2
:10486000FFF7A6FF801B6528F7D322E1FFF7A0FF23
:1048700006462868800305D5FFF79AFF801B652848
:10488000F7D316E12078800717D5A86810F00C0F31
:1048900005D000F01DF926D16868400223D42868AD
:1048A000800702D5E0680128A0D128686FF0F801E0
:1048B0000840216940EAC10028602078000743D5FC
:1048C00060690028686F30D040F001006867FFF72A
:1048D0006FFF0646686F800736D4FFF769FF801BBD
:1048E0006528F7D3E5E0E068002828680ED040F09E
:1048F00001002860FFF75CFF064628688007D4D4D3
:10490000FFF756FF801B6528F7D3D2E04008400030
:104910002860FFF74DFF064628688007CDD5FFF7D2
:1049200047FF801B6528F7D3C3E040084000686755
:10493000FFF73EFF0646686F800705D5FFF738FF93
:10494000801B6528F7D3B4E02078400769D50020A4
:10495000DFF8D0730090286C40F080502864286CF9
:1049600000F0805000900098386840F48070386003
:10497000FFF71EFF06463868C00505D4FFF718FF8D
:10498000801B6528F7D394E0286F6FF0040141F293
:104990008937400840002867286F00F08EF82867A4
:1049A000FFF706FF0646286F800705D5FFF700FFD3
:1049B000801BB842F7D37CE0286F4008400028678E
:1049C000A068012804D1286F6FF00401084004E0BA
:1049D0000528286F06D140F004002867286F40F0B2
:1049E000010003E06FF0040100F067F82867A06899
:1049F00058B1FFF7DDFE0646286F800711D4FFF798
:104A0000D7FE801BB842F7D353E0FFF7D1FE06462E
:104A1000286F800705D5FFF7CBFE801BB842F7D380
:104A200047E0A069002846D0A96801F00C010829D8
:104A30003FF4DCAE0228286820F0807028602DD179
:104A4000FFF7B6FE06462868800105D5FFF7B0FEE1
:104A5000801B6528F7D32CE0206A616A40EA811048
:104A6000A16A891EC903090C40EA0140E1690843B3
:104A7000E16A40EA016040F000506860286840F058
:104A800080702860FFF794FE06462868800112D4E3
:104A9000FFF78EFE801B6528F7D30AE0FFF788FE3C
:104AA00006462868800106D5FFF782FE801B652830
:104AB000F7D30320F2BD0020F2BD08402867286F1D
:104AC000400840007047286820F480302860704714
:104AD000A86800F00C00082870472DE9F843044648
:104AE000DFF844522868894641F28938DFF830629D
:104AF00000F00F0048453AD200F097F873D100F06B
:104B00009EF872D56068012802D13168890303E0FC
:104B10000228316802D1890102D464E0890762D594
:104B200000F07CF80746606801280AD1B06800F000
:104B30000C00042859D0FFF73BFEC01B4045F5D3BD
:104B40004CE0022809D1B068FFF7C3FF4DD0FFF752
:104B50002FFEC01B4045F6D340E0B06810F00C0FAC
:104B600043D0FFF725FEC01B4045F6D336E000F0EA
:104B700066F835D56068012802D13168890303E001
:104B80000228316802D1890102D42CE089072AD594
:104B900000F044F80746606801280AD1B06800F0C8
:104BA0000C0004281CD0FFF703FEC01B4045F5D3C2
:104BB00014E0022809D1B068FFF78BFF10D0FFF78F
:104BC000F7FDC01B4045F6D308E0B06810F00C0FAD
:104BD00006D0FFF7EDFDC01B4045F6D303201BE0D8
:104BE00000F023F801D0012016E02078400705D519
:104BF000B068E16820F4E0500843B0602078000716
:104C000006D5B068216920F4604040EAC100B06078
:104C1000002000F005FA0020BDE8F283B1688908A1
:104C200040EA8100B060FFF7C3BD2868000949EA87
:104C300000102860286800F00F0048457047207871
:104C4000800706D5B0686FF0F0010840A1680843FE
:104C5000B0602078C00770473548416801F00C010A
:104C6000042902D0082902D017E0324870470168B1
:104C70000268520201F03F014CBF2E4A2E4AB2FB9D
:104C8000F1F102680068C2F388125143C0F3014099
:104C9000401C4000B1FBF0F070472748704780B5DA
:104CA000FFF7DAFF214B0FF298021B682349C3F389
:104CB0000313D25CD0400860086802BD80B5FFF7DE
:104CC000EEFF00F00DF8C2F3822206E080B5FFF798
:104CD000E6FF00F005F8C2F34232895CC84002BD2D
:104CE000124A0FF25C01126870470F2202600F4AED
:104CF000136803F003034360136803F0F003836059
:104D0000136803F4E053C3601268D20802F4E0525F
:104D100002610548006800F00F000860704700005D
:104D20000038024000700040003C02400838024059
:104D30000438024040787D010024F4000C0000207B
:104D40000000000001020304010203040607080931
:104D50000901002806D52F4A00F00F00104400F882
:104D6000041C70472C4A115470472C494FF6FF031E
:104D70000A68000200F4E0601A401043284A104319
:104D80000860704738B5254B1B68C3F30223C3F195
:104D90000704052C28BF04241D1D072D34BF002344
:104DA000DB1E012505FA04F4641E2140994005FA32
:104DB00003F35B1E1A401143BDE83440C8E70121EC
:104DC00000F01F029140174AFFE7400942F8201007
:104DD0007047401EB0F1807F10B501D3012010BD97
:104DE000114C0F2160604FF0FF30FFF7B1FF002042
:104DF000A06007202060002010BD0B49042808682F
:104E00000EBF40F004006FF00402104008607047CD
:104E10000000000018ED00E000E400E00CED00E010
:104E20000000FA0500E100E010E000E02DE9F84F95
:104E300002460023DFF8B481DFF8B491DFF8B4A1B3
:104E40004FF00F0B0C680120984000EA040E8645D5
:104E500040F0C2804D689C00022D18BF122D0FD16A
:104E6000DD0802EB850C04F01C050BFA05F7DCF8F5
:104E70002060BE430F6907FA05F53543CCF8205092
:104E800016680F794FEA430C032505FA0CF5ED433C
:104E90002E4007F0030707FA0CF73E4316604E68F2
:104EA000012E18BF022E03D0112E18BF122E0FD1C3
:104EB0009668CF682E4007FA0CF73E439660566816
:104EC00026EA00004E68C6F300169E40304350604C
:104ED000D06828408D6805FA0CF52843D0604868F2
:104EE000C00079D5002004F00C060090DAF800002C
:104EF0000BFA06F440F48040CAF80000DAF800002B
:104F000000F4804000900098980859F8205025EA55
:104F10000404394DAA4208BF00252CD0374DAA42BF
:104F200008BF012527D0364DAA4208BF022522D04E
:104F3000344DAA4208BF03251DD0334DAA4208BFF5
:104F4000042518D0314DAA4208BF052513D0304D95
:104F5000AA4208BF06250ED02E4DAA4208BF07253B
:104F600009D02D4DAA4208BF082504D02B4DAA42D6
:104F70000CBF09250A25B5402C4349F82040D8F834
:104F800000406FEA0E0000EA040C4C68E40348BFDE
:104F90004EEA0C0CC8F800C0D8F8044000EA040C33
:104FA0004C68A40348BF4EEA0C0CC8F804C0D8F8FB
:104FB000084000EA040C4C68E40248BF4EEA0C0CBE
:104FC000C8F808C0D8F80C4020404C68A40248BF7C
:104FD0004EEA0000C8F80C005B1C102BFFF432AF47
:104FE000BDE8F18F02B9090481617047003C0140BE
:104FF00008380140443802400000024000040240EA
:1050000000080240000C0240001002400014024060
:1050100000180240001C0240002002400024024010
:1050200010B5014688B000221920FFF7ABFE192009
:10503000164CFFF7C4FE002000901548016841F0AF
:1050400001010160006801A900F0010000900098D2
:1050500002A8FFF74AFEFFF739FE0E49216040F231
:10506000E731E1600C49B0FBF1F0401E60600020C8
:105070002061A060204600F013F818B9204600F027
:1050800023F800E0012008B010BD00008047002098
:10509000443802400000014040420F00FFF783BB4C
:1050A00010B5040001D1012010BD94F8390010B9E9
:1050B000204600F008F80220211D84F839002068FD
:1050C00000F0CBF810E070470068C16841F00101C2
:1050D000C160016841F0010101600020704703D107
:1050E0000168490849000160012084F83900002066
:1050F00010BD38B5044620680169890716D5C16816
:10510000890713D56FF002010161012121768069C1
:1051100010F0030F204602D000F09CF804E000F0ED
:1051200098F8204600F097F8002020762068016962
:10513000490716D5C168490713D56FF0040101610D
:1051400002212176806910F4407F204602D000F0D1
:1051500081F804E000F07DF8204600F07CF80020A3
:10516000207620680169090716D5C168090713D59B
:105170006FF00801016104212176C06910F0030F6E
:10518000204602D000F066F804E000F062F8204605
:1051900000F061F80020207620680169C90616D564
:1051A000C168C90613D56FF010010161082121768D
:1051B000C06910F4407F204602D000F04BF804E0B4
:1051C00000F047F8204600F046F8002020762068DE
:1051D0000169C90708D5C168C90705D56FF0010184
:1051E00001612046FFF75AFF20686FF080050169D2
:1051F000090606D5C168090603D50561204600F0F9
:105200008EF820680169C90506D5C168090603D56D
:105210000561204600F083F820680169490608D539
:10522000C168490605D56FF040010161204600F0D4
:1052300013F82068016989060AD5C168890607D56F
:105240006FF0200101612046BDE8324000F066B8F1
:1052500031BD7047704770477047254B254A9842CB
:10526000F0B50468244D18BFB0F1804F234E244F91
:1052700007D0B84218BFB04203D0A84218BF90422E
:1052800011D16FF0700C0CEA04049842D1F804C0FC
:1052900018BFB0F1804F4CEA040417D0B8421CBFCD
:1052A000B042A84212D090421CBF164DA8420DD069
:1052B000154DA8421CBF154DA84207D0144DA84259
:1052C0001FBF144DA842144DA84203D1CD6824F449
:1052D00040742C4304608C68C4620C6898428462F9
:1052E00012BF90420969016301214161F0BD0000D4
:1052F0000000014000040140000C00400008004094
:1053000000040040004001400044014000480140CA
:1053100000180040001C004000200040704770470B
:1053200030B58FB0DFF8A044FFF732FA00F079F81B
:1053300000F0D4F8DFF89404DFF8941401604FF41F
:1053400082714160002181604FF4E061C1600221FF
:105350000161012141614FF4007181613821C16116
:10536000002101624FF49645416281620721C162CA
:1053700000210163416300F07FFADFF85804A56063
:1053800060600020E060206160610C20A06100206E
:10539000E06120626062A062201DFEF77DFEDFF802
:1053A0003804DFF83814016000218160C1600161B8
:1053B0000C214161002145608161C161016241624E
:1053C000FEF76AFE002001222070012060704FF479
:1053D0000071DFF84804FFF705FE0AA80FF25C41F0
:1053E0001422FDF7E9FA00210AA800F0B0FA60677C
:1053F00005A80FF25C411422FDF7DEFA002105A892
:1054000000F0A5FAA06768460FF258411422FDF794
:10541000D3FA0021684600F09AFAE06700F092FAA9
:10542000FEE700B5B3B000200090DFF8B4030168D8
:1054300041F080510160006800F0805000900098B9
:1054400000200090DFF8D003016821F4404141F4CE
:1054500080410160006800F4404000900098022004
:1054600006900120099010200A9002200C90002044
:105470000D9008200E9050200F9002201090119057
:1054800006A8FFF79BF90F2002210190022002904D
:10549000002003904FF4805004900020059001A854
:1054A000FFF71BFB4FF41070129000202390269002
:1054B00012A800F09DFAFFF7F2FB4FF47A71B0FBEF
:1054C000F1F0FFF786FC0420FFF797FC00220F2184
:1054D0004FF0FF30FFF756FC33B000BDF0B587B09A
:1054E00000200090DFF8FC02016842F23007DFF88C
:1054F000F8620022DFF8F442DFF8205341F00401A3
:105500000160016801F0040100F038F841F0010188
:105510000160016801F0010100F030F841F0020182
:1055200001600068394600F002000090009800F029
:105530008BF800224FF400412046FFF753FD002274
:105540004FF4007100F02BF8012001970290002029
:10555000039001A904903046FFF768FC4FF4004027
:1055600000F012F82046FFF761FC4FF4007000F0E5
:105570000BF82846FFF75AFC07B0F0BD00910099E0
:10558000002100910168704701A90190012002905B
:10559000002003900490704700224FF400512846E9
:1055A000FFF720BD88480178092901D132207047D2
:1055B0000178082901D1642070470178072901D1B9
:1055C000FA2070470178062902D14FF47A707047AB
:1055D0000178052902D140F2DC5070470178042996
:1055E00002D14FF4FA6070470178032902D140F6E6
:1055F000C4107047007802280CBF40F6B83040F65F
:10560000AC50704738B5704C774DE06F00F0DAF968
:1056100001E0FFF7C1FF20780028FAD000F00BF876
:10562000FFF7C0FF00F0AEF9FFF7B6FFFFF7BAFFD4
:1056300000F0A8F9EFE701224FF400512846FFF7E8
:10564000D1BC00224FF480713046FFF7CBBC000084
:105650002DE9F0413220604D2DED028B86B0DFF850
:10566000888100F08FF930200FF2C4118DF800000E
:1056700002A85FA49FED5F8B00F0F0FB524F05E0A6
:1056800000F08CF84FF47A7000F07CF9F86F00F0BD
:1056900099F900F083F84FF47A7301226946381DB6
:1056A000FEF738FD90BB00264FF4805301220DEB2E
:1056B0000601381DFEF77FFD1DF806100A2905D0EA
:1056C0000328DDD0761C072EEEDB01E00328D7D0BF
:1056D0004FF480730A2202A92846FEF71BFD721EB2
:1056E0004FF4807392B269462846FEF713FD4FF4DB
:1056F00080730322214600F04EF800220021684604
:1057000000F078FCB0EE408AF0EE608A51EC180BA5
:1057100001223A4BFDF716FA38BF092031D3384B36
:10572000FDF710FA38BF08202BD3364BFDF70AFAE5
:1057300038BF072025D34FF08043FDF703FA38BF69
:1057400006201ED3304BFDF7FDF938BF052018D3D6
:105750002E4BFDF7F7F938BF042012D32C4BFDF781
:10576000F1F938BF03200CD32A4BFDF7EBF938BF12
:10577000022006D32A4BFDF7E5F938BF3A7001D372
:1057800000203870F86F00F022F94FF496707BE734
:1057900082B2434631462846FEF7BCBC00224FF495
:1057A00000514046FFF71EBC10B51C4C42F2107071
:1057B00000F0E8F8002200F035F8C82000F0E2F828
:1057C000012200F02FF8F1E72C4600201C470020B2
:1057D00000300140004C0040AC4600200010014069
:1057E00040380240303802400008024000000240C9
:1057F0000A0D000000000000000000000000D03F83
:105800000000E03F0000F03F0000084000001040B2
:1058100000001440000024400070004000040240DA
:10582000000034404FF400712046FFF7DBBB00005E
:1058300009090909090909643A200000C868000833
:10584000A9570008000000000000000080000000D0
:10585000D468000851560008000000000000000055
:1058600080000000E0680008055600080000000005
:10587000000000004000000070B5040001D10120CC
:1058800070BD04F15C05687818B928702046FEF7F1
:10589000FBFE02206FF040026870206840F2017346
:1058A000016811400160E2689A4204D30021B2F518
:1058B000706F05D106E0B2F5E06F4FF4805101D072
:1058C0000026A662266B26B99A422CBF022201222C
:1058D00022636268A3681A4323691A4363691A43FF
:1058E000A36903F400731A43E3691A43236A1A4352
:1058F000A36A1A430260226B022A03D1026842F4AF
:1059000000620260A269636A120C02F004021A4388
:10591000636B1A43E3681A4311434160E16A016112
:105920000020686001206870002070BD002184287C
:1059300018BFC11C08467047EFF3058000B1012075
:10594000C0B2704780B5FDF747FF002002BD30B5FB
:1059500085B00446B4F908000D46FFF7E7FF0021C3
:10596000009003912B46029104A9019122692168BC
:10597000606892B2FDF79CFD012814BF00200498D6
:1059800005B030BD80B500B90120FDF726FE00202E
:1059900002BD0446D0E74FF0805004490860BFF3D1
:1059A0004F8FBFF36F8F70470000000004ED00E0E1
:1059B00080B5FEF7B6F801281CBFBDE80140FEF730
:1059C00076B901BD80B5FDF723FE002002BD10B5FC
:1059D000FFF7DFFF0028204606D0FDF7BCFE0128B8
:1059E00004D1FFF7D8FF01E0FDF782FE002010BDD3
:1059F0002DE9F04782B0044620780027B846DFF84A
:105A00004C54C0070AD5A86820F40000A860A86814
:105A1000616B0843A860606B00B901272068DFF85C
:105A2000306400030ED5B068E16B20F440100843E9
:105A3000B060E06BB0F5801F08BF012702D008B945
:105A40004FF001082068C0020ED5B068216C20F428
:105A500040000843B060206CB0F5800F08BF0127FC
:105A600002D008B94FF001082068C10148BF0127E2
:105A700080065DD50020DFF8DC930090286C40F0B4
:105A800080502864286C00F0805000900098D9F86D
:105A9000000040F48070C9F80000FEF789FE8246DD
:105AA000D9F80000C00506D4FEF782FEA0EB0A007C
:105AB0006528F5D3AAE1286F216B00F4407001F44A
:105AC0004071884234D0286F296F41F480312967B2
:105AD000296F20F4407021F48031296728678007FE
